{
  "address": "0x3db3acB89bC9890037EE4314804e66608e5A5Ed2",
  "abi": [
    {
      "inputs": [
        {
          "internalType": "address",
          "name": "_VRFCoordinator",
          "type": "address"
        },
        {
          "internalType": "address",
          "name": "_LinkToken",
          "type": "address"
        },
        {
          "internalType": "bytes32",
          "name": "_keyHash",
          "type": "bytes32"
        },
        {
          "internalType": "uint256",
          "name": "_fee",
          "type": "uint256"
        }
      ],
      "stateMutability": "nonpayable",
      "type": "constructor"
    },
    {
      "anonymous": false,
      "inputs": [
        {
          "indexed": true,
          "internalType": "address",
          "name": "owner",
          "type": "address"
        },
        {
          "indexed": true,
          "internalType": "address",
          "name": "approved",
          "type": "address"
        },
        {
          "indexed": true,
          "internalType": "uint256",
          "name": "tokenId",
          "type": "uint256"
        }
      ],
      "name": "Approval",
      "type": "event"
    },
    {
      "anonymous": false,
      "inputs": [
        {
          "indexed": true,
          "internalType": "address",
          "name": "owner",
          "type": "address"
        },
        {
          "indexed": true,
          "internalType": "address",
          "name": "operator",
          "type": "address"
        },
        {
          "indexed": false,
          "internalType": "bool",
          "name": "approved",
          "type": "bool"
        }
      ],
      "name": "ApprovalForAll",
      "type": "event"
    },
    {
      "anonymous": false,
      "inputs": [
        {
          "indexed": true,
          "internalType": "uint256",
          "name": "tokenId",
          "type": "uint256"
        },
        {
          "indexed": false,
          "internalType": "string",
          "name": "tokenURI",
          "type": "string"
        }
      ],
      "name": "CreatedRandomSVG",
      "type": "event"
    },
    {
      "anonymous": false,
      "inputs": [
        {
          "indexed": true,
          "internalType": "uint256",
          "name": "tokenId",
          "type": "uint256"
        },
        {
          "indexed": false,
          "internalType": "uint256",
          "name": "randomNumber",
          "type": "uint256"
        }
      ],
      "name": "CreatedUnfinishedRandomSVG",
      "type": "event"
    },
    {
      "anonymous": false,
      "inputs": [
        {
          "indexed": true,
          "internalType": "address",
          "name": "from",
          "type": "address"
        },
        {
          "indexed": true,
          "internalType": "address",
          "name": "to",
          "type": "address"
        },
        {
          "indexed": true,
          "internalType": "uint256",
          "name": "tokenId",
          "type": "uint256"
        }
      ],
      "name": "Transfer",
      "type": "event"
    },
    {
      "anonymous": false,
      "inputs": [
        {
          "indexed": true,
          "internalType": "bytes32",
          "name": "requestId",
          "type": "bytes32"
        },
        {
          "indexed": true,
          "internalType": "uint256",
          "name": "tokenId",
          "type": "uint256"
        }
      ],
      "name": "requestedRandomSVG",
      "type": "event"
    },
    {
      "inputs": [
        {
          "internalType": "address",
          "name": "to",
          "type": "address"
        },
        {
          "internalType": "uint256",
          "name": "tokenId",
          "type": "uint256"
        }
      ],
      "name": "approve",
      "outputs": [],
      "stateMutability": "nonpayable",
      "type": "function"
    },
    {
      "inputs": [
        {
          "internalType": "address",
          "name": "owner",
          "type": "address"
        }
      ],
      "name": "balanceOf",
      "outputs": [
        {
          "internalType": "uint256",
          "name": "",
          "type": "uint256"
        }
      ],
      "stateMutability": "view",
      "type": "function"
    },
    {
      "inputs": [
        {
          "internalType": "uint256",
          "name": "",
          "type": "uint256"
        }
      ],
      "name": "colors",
      "outputs": [
        {
          "internalType": "string",
          "name": "",
          "type": "string"
        }
      ],
      "stateMutability": "view",
      "type": "function"
    },
    {
      "inputs": [],
      "name": "create",
      "outputs": [
        {
          "internalType": "bytes32",
          "name": "requestId",
          "type": "bytes32"
        }
      ],
      "stateMutability": "nonpayable",
      "type": "function"
    },
    {
      "inputs": [],
      "name": "fee",
      "outputs": [
        {
          "internalType": "uint256",
          "name": "",
          "type": "uint256"
        }
      ],
      "stateMutability": "view",
      "type": "function"
    },
    {
      "inputs": [
        {
          "internalType": "uint256",
          "name": "_tokenId",
          "type": "uint256"
        }
      ],
      "name": "finishMint",
      "outputs": [],
      "stateMutability": "nonpayable",
      "type": "function"
    },
    {
      "inputs": [
        {
          "internalType": "string",
          "name": "_imageURI",
          "type": "string"
        }
      ],
      "name": "formatTokenURI",
      "outputs": [
        {
          "internalType": "string",
          "name": "",
          "type": "string"
        }
      ],
      "stateMutability": "pure",
      "type": "function"
    },
    {
      "inputs": [
        {
          "internalType": "uint256",
          "name": "_randomNumber",
          "type": "uint256"
        }
      ],
      "name": "generatePath",
      "outputs": [
        {
          "internalType": "string",
          "name": "pathSvg",
          "type": "string"
        }
      ],
      "stateMutability": "view",
      "type": "function"
    },
    {
      "inputs": [
        {
          "internalType": "uint256",
          "name": "_randomNumber",
          "type": "uint256"
        }
      ],
      "name": "generatePathCommand",
      "outputs": [
        {
          "internalType": "string",
          "name": "pathCommand",
          "type": "string"
        }
      ],
      "stateMutability": "view",
      "type": "function"
    },
    {
      "inputs": [
        {
          "internalType": "uint256",
          "name": "_randomNumber",
          "type": "uint256"
        }
      ],
      "name": "generateSVG",
      "outputs": [
        {
          "internalType": "string",
          "name": "finalSvg",
          "type": "string"
        }
      ],
      "stateMutability": "view",
      "type": "function"
    },
    {
      "inputs": [
        {
          "internalType": "uint256",
          "name": "tokenId",
          "type": "uint256"
        }
      ],
      "name": "getApproved",
      "outputs": [
        {
          "internalType": "address",
          "name": "",
          "type": "address"
        }
      ],
      "stateMutability": "view",
      "type": "function"
    },
    {
      "inputs": [
        {
          "internalType": "address",
          "name": "owner",
          "type": "address"
        },
        {
          "internalType": "address",
          "name": "operator",
          "type": "address"
        }
      ],
      "name": "isApprovedForAll",
      "outputs": [
        {
          "internalType": "bool",
          "name": "",
          "type": "bool"
        }
      ],
      "stateMutability": "view",
      "type": "function"
    },
    {
      "inputs": [],
      "name": "keyHash",
      "outputs": [
        {
          "internalType": "bytes32",
          "name": "",
          "type": "bytes32"
        }
      ],
      "stateMutability": "view",
      "type": "function"
    },
    {
      "inputs": [],
      "name": "maxNumberOfPathCommands",
      "outputs": [
        {
          "internalType": "uint256",
          "name": "",
          "type": "uint256"
        }
      ],
      "stateMutability": "view",
      "type": "function"
    },
    {
      "inputs": [],
      "name": "maxNumberOfPaths",
      "outputs": [
        {
          "internalType": "uint256",
          "name": "",
          "type": "uint256"
        }
      ],
      "stateMutability": "view",
      "type": "function"
    },
    {
      "inputs": [],
      "name": "name",
      "outputs": [
        {
          "internalType": "string",
          "name": "",
          "type": "string"
        }
      ],
      "stateMutability": "view",
      "type": "function"
    },
    {
      "inputs": [
        {
          "internalType": "uint256",
          "name": "tokenId",
          "type": "uint256"
        }
      ],
      "name": "ownerOf",
      "outputs": [
        {
          "internalType": "address",
          "name": "",
          "type": "address"
        }
      ],
      "stateMutability": "view",
      "type": "function"
    },
    {
      "inputs": [
        {
          "internalType": "uint256",
          "name": "",
          "type": "uint256"
        }
      ],
      "name": "pathCommands",
      "outputs": [
        {
          "internalType": "string",
          "name": "",
          "type": "string"
        }
      ],
      "stateMutability": "view",
      "type": "function"
    },
    {
      "inputs": [
        {
          "internalType": "bytes32",
          "name": "requestId",
          "type": "bytes32"
        },
        {
          "internalType": "uint256",
          "name": "randomness",
          "type": "uint256"
        }
      ],
      "name": "rawFulfillRandomness",
      "outputs": [],
      "stateMutability": "nonpayable",
      "type": "function"
    },
    {
      "inputs": [
        {
          "internalType": "bytes32",
          "name": "",
          "type": "bytes32"
        }
      ],
      "name": "requestIdToSender",
      "outputs": [
        {
          "internalType": "address",
          "name": "",
          "type": "address"
        }
      ],
      "stateMutability": "view",
      "type": "function"
    },
    {
      "inputs": [
        {
          "internalType": "bytes32",
          "name": "",
          "type": "bytes32"
        }
      ],
      "name": "requestIdToTokenId",
      "outputs": [
        {
          "internalType": "uint256",
          "name": "",
          "type": "uint256"
        }
      ],
      "stateMutability": "view",
      "type": "function"
    },
    {
      "inputs": [
        {
          "internalType": "address",
          "name": "from",
          "type": "address"
        },
        {
          "internalType": "address",
          "name": "to",
          "type": "address"
        },
        {
          "internalType": "uint256",
          "name": "tokenId",
          "type": "uint256"
        }
      ],
      "name": "safeTransferFrom",
      "outputs": [],
      "stateMutability": "nonpayable",
      "type": "function"
    },
    {
      "inputs": [
        {
          "internalType": "address",
          "name": "from",
          "type": "address"
        },
        {
          "internalType": "address",
          "name": "to",
          "type": "address"
        },
        {
          "internalType": "uint256",
          "name": "tokenId",
          "type": "uint256"
        },
        {
          "internalType": "bytes",
          "name": "_data",
          "type": "bytes"
        }
      ],
      "name": "safeTransferFrom",
      "outputs": [],
      "stateMutability": "nonpayable",
      "type": "function"
    },
    {
      "inputs": [
        {
          "internalType": "address",
          "name": "operator",
          "type": "address"
        },
        {
          "internalType": "bool",
          "name": "approved",
          "type": "bool"
        }
      ],
      "name": "setApprovalForAll",
      "outputs": [],
      "stateMutability": "nonpayable",
      "type": "function"
    },
    {
      "inputs": [],
      "name": "size",
      "outputs": [
        {
          "internalType": "uint256",
          "name": "",
          "type": "uint256"
        }
      ],
      "stateMutability": "view",
      "type": "function"
    },
    {
      "inputs": [
        {
          "internalType": "bytes4",
          "name": "interfaceId",
          "type": "bytes4"
        }
      ],
      "name": "supportsInterface",
      "outputs": [
        {
          "internalType": "bool",
          "name": "",
          "type": "bool"
        }
      ],
      "stateMutability": "view",
      "type": "function"
    },
    {
      "inputs": [
        {
          "internalType": "string",
          "name": "_svg",
          "type": "string"
        }
      ],
      "name": "svgToImageURI",
      "outputs": [
        {
          "internalType": "string",
          "name": "",
          "type": "string"
        }
      ],
      "stateMutability": "pure",
      "type": "function"
    },
    {
      "inputs": [],
      "name": "symbol",
      "outputs": [
        {
          "internalType": "string",
          "name": "",
          "type": "string"
        }
      ],
      "stateMutability": "view",
      "type": "function"
    },
    {
      "inputs": [],
      "name": "tokenCounter",
      "outputs": [
        {
          "internalType": "uint256",
          "name": "",
          "type": "uint256"
        }
      ],
      "stateMutability": "view",
      "type": "function"
    },
    {
      "inputs": [
        {
          "internalType": "uint256",
          "name": "",
          "type": "uint256"
        }
      ],
      "name": "tokenIdToRandomNumber",
      "outputs": [
        {
          "internalType": "uint256",
          "name": "",
          "type": "uint256"
        }
      ],
      "stateMutability": "view",
      "type": "function"
    },
    {
      "inputs": [
        {
          "internalType": "uint256",
          "name": "tokenId",
          "type": "uint256"
        }
      ],
      "name": "tokenURI",
      "outputs": [
        {
          "internalType": "string",
          "name": "",
          "type": "string"
        }
      ],
      "stateMutability": "view",
      "type": "function"
    },
    {
      "inputs": [
        {
          "internalType": "address",
          "name": "from",
          "type": "address"
        },
        {
          "internalType": "address",
          "name": "to",
          "type": "address"
        },
        {
          "internalType": "uint256",
          "name": "tokenId",
          "type": "uint256"
        }
      ],
      "name": "transferFrom",
      "outputs": [],
      "stateMutability": "nonpayable",
      "type": "function"
    }
  ],
  "transactionHash": "0x4ee703d1326c540686dd36377d716f6321b3ac49a4e4b5b26cf1e3ee05a761d5",
  "args": [
    "0xb3dCcb4Cf7a26f6cf6B120Cf5A73875B7BBc655B",
    "0x01be23585060835e02b77ef475b0cc51aa1e0709",
    "0x2ed0feb3e7fd2022120aa84fab1945545a9f2ffc9076fd6156fa96eaff4c1311",
    "100000000000000000"
  ],
  "numDeployments": 1,
  "solcInputHash": "1291eaf86fbc9fca75f990e7d9942ede",
  "bytecode": "0x60c06040523480156200001157600080fd5b5060405162005134380380620051348339818101604052810190620000379190620005c3565b83836040518060400160405280600981526020017f52616e646f6d53564700000000000000000000000000000000000000000000008152506040518060400160405280600581526020017f72734e46540000000000000000000000000000000000000000000000000000008152508160009080519060200190620000bd92919062000392565b508060019080519060200190620000d692919062000392565b5050508173ffffffffffffffffffffffffffffffffffffffff1660a08173ffffffffffffffffffffffffffffffffffffffff1660601b815250508073ffffffffffffffffffffffffffffffffffffffff1660808173ffffffffffffffffffffffffffffffffffffffff1660601b81525050505081600881905550806009819055506000600a81905550600a600b819055506005600c819055506101f4600d8190555060405180604001604052806040518060400160405280600181526020017f4d0000000000000000000000000000000000000000000000000000000000000081525081526020016040518060400160405280600181526020017f4c00000000000000000000000000000000000000000000000000000000000000815250815250600e9060026200020992919062000423565b506040518060c001604052806040518060400160405280600381526020017f726564000000000000000000000000000000000000000000000000000000000081525081526020016040518060400160405280600481526020017f626c75650000000000000000000000000000000000000000000000000000000081525081526020016040518060400160405280600581526020017f677265656e00000000000000000000000000000000000000000000000000000081525081526020016040518060400160405280600681526020017f79656c6c6f77000000000000000000000000000000000000000000000000000081525081526020016040518060400160405280600581526020017f626c61636b00000000000000000000000000000000000000000000000000000081525081526020016040518060400160405280600581526020017f7768697465000000000000000000000000000000000000000000000000000000815250815250600f906006620003879291906200048a565b50505050506200072a565b828054620003a09062000677565b90600052602060002090601f016020900481019282620003c4576000855562000410565b82601f10620003df57805160ff191683800117855562000410565b8280016001018555821562000410579182015b828111156200040f578251825591602001919060010190620003f2565b5b5090506200041f9190620004f1565b5090565b82805482825590600052602060002090810192821562000477579160200282015b82811115620004765782518290805190602001906200046592919062000392565b509160200191906001019062000444565b5b50905062000486919062000510565b5090565b828054828255906000526020600020908101928215620004de579160200282015b82811115620004dd578251829080519060200190620004cc92919062000392565b5091602001919060010190620004ab565b5b509050620004ed919062000510565b5090565b5b808211156200050c576000816000905550600101620004f2565b5090565b5b808211156200053457600081816200052a919062000538565b5060010162000511565b5090565b508054620005469062000677565b6000825580601f106200055a57506200057b565b601f0160209004906000526020600020908101906200057a9190620004f1565b5b50565b6000815190506200058f81620006dc565b92915050565b600081519050620005a681620006f6565b92915050565b600081519050620005bd8162000710565b92915050565b60008060008060808587031215620005da57600080fd5b6000620005ea878288016200057e565b9450506020620005fd878288016200057e565b9350506040620006108782880162000595565b92505060606200062387828801620005ac565b91505092959194509250565b60006200063c826200064d565b9050919050565b6000819050919050565b600073ffffffffffffffffffffffffffffffffffffffff82169050919050565b6000819050919050565b600060028204905060018216806200069057607f821691505b60208210811415620006a757620006a6620006ad565b5b50919050565b7f4e487b7100000000000000000000000000000000000000000000000000000000600052602260045260246000fd5b620006e7816200062f565b8114620006f357600080fd5b50565b620007018162000643565b81146200070d57600080fd5b50565b6200071b816200066d565b81146200072757600080fd5b50565b60805160601c60a05160601c6149d76200075d600039600081816111a4015261256e0152600061253201526149d76000f3fe608060405234801561001057600080fd5b50600436106101f05760003560e01c806371aee1931161010f578063bd11f69d116100a2578063d082e38111610071578063d082e3811461063d578063ddca3f431461065b578063e985e9c514610679578063efc81a8c146106a9576101f0565b8063bd11f69d1461058f578063c21bf36f146105bf578063c68b49d1146105dd578063c87b56dd1461060d576101f0565b806395d89b41116100de57806395d89b41146105095780639c1cd79514610527578063a22cb46514610557578063b88d4fde14610573576101f0565b806371aee1931461046f57806394985ddd1461049f578063949d225d146104bb578063955968d4146104d9576101f0565b806333af598911610187578063624194c711610156578063624194c7146103c35780636352211e146103df5780636dcee4ca1461040f57806370a082311461043f576101f0565b806333af59891461033b57806342842e0e1461036b57806348e896ab1461038757806361728f39146103a5576101f0565b8063219c0eee116101c3578063219c0eee1461028f57806322881f88146102bf57806323b872dd146102ef57806330d871c61461030b576101f0565b806301ffc9a7146101f557806306fdde0314610225578063081812fc14610243578063095ea7b314610273575b600080fd5b61020f600480360381019061020a91906130fe565b6106c7565b60405161021c9190613969565b60405180910390f35b61022d6107a9565b60405161023a9190613a0d565b60405180910390f35b61025d60048036038101906102589190613191565b61083b565b60405161026a91906138c4565b60405180910390f35b61028d60048036038101906102889190613034565b6108c0565b005b6102a960048036038101906102a49190613099565b6109d8565b6040516102b691906138c4565b60405180910390f35b6102d960048036038101906102d49190613099565b610a0b565b6040516102e69190613caf565b60405180910390f35b61030960048036038101906103049190612f2e565b610a23565b005b61032560048036038101906103209190613150565b610a83565b6040516103329190613a0d565b60405180910390f35b61035560048036038101906103509190613191565b610b1c565b6040516103629190613a0d565b60405180910390f35b61038560048036038101906103809190612f2e565b610d0e565b005b61038f610d2e565b60405161039c9190613caf565b60405180910390f35b6103ad610d34565b6040516103ba9190613984565b60405180910390f35b6103dd60048036038101906103d89190613191565b610d3a565b005b6103f960048036038101906103f49190613191565b610ea9565b60405161040691906138c4565b60405180910390f35b61042960048036038101906104249190613191565b610f5b565b6040516104369190613a0d565b60405180910390f35b61045960048036038101906104549190612ec9565b61105d565b6040516104669190613caf565b60405180910390f35b61048960048036038101906104849190613150565b611115565b6040516104969190613a0d565b60405180910390f35b6104b960048036038101906104b491906130c2565b6111a2565b005b6104c361123e565b6040516104d09190613caf565b60405180910390f35b6104f360048036038101906104ee9190613191565b611244565b6040516105009190613a0d565b60405180910390f35b6105116112f0565b60405161051e9190613a0d565b60405180910390f35b610541600480360381019061053c9190613191565b611382565b60405161054e9190613caf565b60405180910390f35b610571600480360381019061056c9190612ff8565b61139a565b005b61058d60048036038101906105889190612f7d565b6113b0565b005b6105a960048036038101906105a49190613191565b611412565b6040516105b69190613a0d565b60405180910390f35b6105c76114be565b6040516105d49190613caf565b60405180910390f35b6105f760048036038101906105f29190613191565b6114c4565b6040516106049190613a0d565b60405180910390f35b61062760048036038101906106229190613191565b611677565b6040516106349190613a0d565b60405180910390f35b6106456117c9565b6040516106529190613caf565b60405180910390f35b6106636117cf565b6040516106709190613caf565b60405180910390f35b610693600480360381019061068e9190612ef2565b6117d5565b6040516106a09190613969565b60405180910390f35b6106b1611869565b6040516106be9190613984565b60405180910390f35b60007f80ac58cd000000000000000000000000000000000000000000000000000000007bffffffffffffffffffffffffffffffffffffffffffffffffffffffff1916827bffffffffffffffffffffffffffffffffffffffffffffffffffffffff1916148061079257507f5b5e139f000000000000000000000000000000000000000000000000000000007bffffffffffffffffffffffffffffffffffffffffffffffffffffffff1916827bffffffffffffffffffffffffffffffffffffffffffffffffffffffff1916145b806107a257506107a182611933565b5b9050919050565b6060600080546107b890613fd6565b80601f01602080910402602001604051908101604052809291908181526020018280546107e490613fd6565b80156108315780601f1061080657610100808354040283529160200191610831565b820191906000526020600020905b81548152906001019060200180831161081457829003601f168201915b5050505050905090565b60006108468261199d565b610885576040517f08c379a000000000000000000000000000000000000000000000000000000000815260040161087c90613bef565b60405180910390fd5b6004600083815260200190815260200160002060009054906101000a900473ffffffffffffffffffffffffffffffffffffffff169050919050565b60006108cb82610ea9565b90508073ffffffffffffffffffffffffffffffffffffffff168373ffffffffffffffffffffffffffffffffffffffff16141561093c576040517f08c379a000000000000000000000000000000000000000000000000000000000815260040161093390613c4f565b60405180910390fd5b8073ffffffffffffffffffffffffffffffffffffffff1661095b611a09565b73ffffffffffffffffffffffffffffffffffffffff16148061098a575061098981610984611a09565b6117d5565b5b6109c9576040517f08c379a00000000000000000000000000000000000000000000000000000000081526004016109c090613b0f565b60405180910390fd5b6109d38383611a11565b505050565b60106020528060005260406000206000915054906101000a900473ffffffffffffffffffffffffffffffffffffffff1681565b60116020528060005260406000206000915090505481565b610a34610a2e611a09565b82611aca565b610a73576040517f08c379a0000000000000000000000000000000000000000000000000000000008152600401610a6a90613c6f565b60405180910390fd5b610a7e838383611ba8565b505050565b606060006040518060400160405280601a81526020017f646174613a696d6167652f7376672b786d6c3b6261736536342c00000000000081525090506000610ae984604051602001610ad59190613753565b604051602081830303815290604052611e0f565b905060008282604051602001610b0092919061376a565b6040516020818303038152906040529050809350505050919050565b606060006001600c5484610b309190614096565b610b3a9190613dbd565b90506040518060400160405280600981526020017f3c7061746820643d270000000000000000000000000000000000000000000000815250915060005b81811015610c025760008482600d54610b909190613dbd565b604051602001610ba1929190613cca565b6040516020818303038152906040528051906020012060001c90506000610bc7826114c4565b90508481604051602001610bdc92919061376a565b604051602081830303815290604052945050508080610bfa90614039565b915050610b77565b506000600f808054905085610c179190614096565b81548110610c4e577f4e487b7100000000000000000000000000000000000000000000000000000000600052603260045260246000fd5b906000526020600020018054610c6390613fd6565b80601f0160208091040260200160405190810160405280929190818152602001828054610c8f90613fd6565b8015610cdc5780601f10610cb157610100808354040283529160200191610cdc565b820191906000526020600020905b815481529060010190602001808311610cbf57829003601f168201915b505050505090508281604051602001610cf69291906137d5565b60405160208183030381529060405292505050919050565b610d29838383604051806020016040528060008152506113b0565b505050565b600c5481565b60085481565b6000610d4582611677565b511115610d87576040517f08c379a0000000000000000000000000000000000000000000000000000000008152600401610d7e90613acf565b60405180910390fd5b80600a5411610dcb576040517f08c379a0000000000000000000000000000000000000000000000000000000008152600401610dc290613b8f565b60405180910390fd5b6000601260008381526020019081526020016000205411610e21576040517f08c379a0000000000000000000000000000000000000000000000000000000008152600401610e1890613c8f565b60405180910390fd5b6000601260008381526020019081526020016000205490506000610e4482610f5b565b90506000610e5182610a83565b90506000610e5e82611115565b9050610e6a8582611fae565b847f15a6487b7915a7116ce2a61d43b17e9b47484b1931f3c79f2f3d139b307b389384604051610e9a9190613a0d565b60405180910390a25050505050565b6000806002600084815260200190815260200160002060009054906101000a900473ffffffffffffffffffffffffffffffffffffffff169050600073ffffffffffffffffffffffffffffffffffffffff168173ffffffffffffffffffffffffffffffffffffffff161415610f52576040517f08c379a0000000000000000000000000000000000000000000000000000000008152600401610f4990613b4f565b60405180910390fd5b80915050919050565b606060006001600b5484610f6f9190614096565b610f799190613dbd565b9050610f86600d54612022565b610f91600d54612022565b604051602001610fa292919061387f565b604051602081830303815290604052915060005b818110156110345760008482604051602001610fd3929190613cca565b6040516020818303038152906040528051906020012060001c90506000610ff982610b1c565b9050848160405160200161100e92919061376a565b60405160208183030381529060405294505050808061102c90614039565b915050610fb6565b5081604051602001611046919061380f565b604051602081830303815290604052915050919050565b60008073ffffffffffffffffffffffffffffffffffffffff168273ffffffffffffffffffffffffffffffffffffffff1614156110ce576040517f08c379a00000000000000000000000000000000000000000000000000000000081526004016110c590613b2f565b60405180910390fd5b600360008373ffffffffffffffffffffffffffffffffffffffff1673ffffffffffffffffffffffffffffffffffffffff168152602001908152602001600020549050919050565b606060006040518060400160405280601d81526020017f646174613a6170706c69636174696f6e2f6a736f6e3b6261736536342c00000081525090508061117a846040516020016111669190613831565b604051602081830303815290604052611e0f565b60405160200161118b92919061376a565b604051602081830303815290604052915050919050565b7f000000000000000000000000000000000000000000000000000000000000000073ffffffffffffffffffffffffffffffffffffffff163373ffffffffffffffffffffffffffffffffffffffff1614611230576040517f08c379a000000000000000000000000000000000000000000000000000000000815260040161122790613c2f565b60405180910390fd5b61123a82826121f7565b5050565b600d5481565b600e818154811061125457600080fd5b90600052602060002001600091509050805461126f90613fd6565b80601f016020809104026020016040519081016040528092919081815260200182805461129b90613fd6565b80156112e85780601f106112bd576101008083540402835291602001916112e8565b820191906000526020600020905b8154815290600101906020018083116112cb57829003601f168201915b505050505081565b6060600180546112ff90613fd6565b80601f016020809104026020016040519081016040528092919081815260200182805461132b90613fd6565b80156113785780601f1061134d57610100808354040283529160200191611378565b820191906000526020600020905b81548152906001019060200180831161135b57829003601f168201915b5050505050905090565b60126020528060005260406000206000915090505481565b6113ac6113a5611a09565b83836122a7565b5050565b6113c16113bb611a09565b83611aca565b611400576040517f08c379a00000000000000000000000000000000000000000000000000000000081526004016113f790613c6f565b60405180910390fd5b61140c84848484612414565b50505050565b600f818154811061142257600080fd5b90600052602060002001600091509050805461143d90613fd6565b80601f016020809104026020016040519081016040528092919081815260200182805461146990613fd6565b80156114b65780601f1061148b576101008083540402835291602001916114b6565b820191906000526020600020905b81548152906001019060200180831161149957829003601f168201915b505050505081565b600b5481565b6060600e8080549050836114d89190614096565b8154811061150f577f4e487b7100000000000000000000000000000000000000000000000000000000600052603260045260246000fd5b90600052602060002001805461152490613fd6565b80601f016020809104026020016040519081016040528092919081815260200182805461155090613fd6565b801561159d5780601f106115725761010080835404028352916020019161159d565b820191906000526020600020905b81548152906001019060200180831161158057829003601f168201915b505050505090506000600d54836002600d546115b99190613e7b565b6040516020016115ca929190613cca565b6040516020818303038152906040528051906020012060001c6115ed9190614096565b90506000600d54846003600d546116049190613e7b565b604051602001611615929190613cca565b6040516020818303038152906040528051906020012060001c6116389190614096565b90508261164483612022565b61164d83612022565b60405160200161165f9392919061378e565b60405160208183030381529060405292505050919050565b60606116828261199d565b6116c1576040517f08c379a00000000000000000000000000000000000000000000000000000000081526004016116b890613bcf565b60405180910390fd5b60006006600084815260200190815260200160002080546116e190613fd6565b80601f016020809104026020016040519081016040528092919081815260200182805461170d90613fd6565b801561175a5780601f1061172f5761010080835404028352916020019161175a565b820191906000526020600020905b81548152906001019060200180831161173d57829003601f168201915b50505050509050600061176b612470565b90506000815114156117815781925050506117c4565b6000825111156117b657808260405160200161179e92919061376a565b604051602081830303815290604052925050506117c4565b6117bf84612487565b925050505b919050565b600a5481565b60095481565b6000600560008473ffffffffffffffffffffffffffffffffffffffff1673ffffffffffffffffffffffffffffffffffffffff16815260200190815260200160002060008373ffffffffffffffffffffffffffffffffffffffff1673ffffffffffffffffffffffffffffffffffffffff16815260200190815260200160002060009054906101000a900460ff16905092915050565b600061187960085460095461252e565b9050336010600083815260200190815260200160002060006101000a81548173ffffffffffffffffffffffffffffffffffffffff021916908373ffffffffffffffffffffffffffffffffffffffff1602179055506000600a5490508060116000848152602001908152602001600020819055506001600a546118fb9190613dbd565b600a8190555080827fb97343f1f2afc4959f818046ccae28fd7b05fcd2b7a7dc651cbb52a096cae03560405160405180910390a35090565b60007f01ffc9a7000000000000000000000000000000000000000000000000000000007bffffffffffffffffffffffffffffffffffffffffffffffffffffffff1916827bffffffffffffffffffffffffffffffffffffffffffffffffffffffff1916149050919050565b60008073ffffffffffffffffffffffffffffffffffffffff166002600084815260200190815260200160002060009054906101000a900473ffffffffffffffffffffffffffffffffffffffff1673ffffffffffffffffffffffffffffffffffffffff1614159050919050565b600033905090565b816004600083815260200190815260200160002060006101000a81548173ffffffffffffffffffffffffffffffffffffffff021916908373ffffffffffffffffffffffffffffffffffffffff160217905550808273ffffffffffffffffffffffffffffffffffffffff16611a8483610ea9565b73ffffffffffffffffffffffffffffffffffffffff167f8c5be1e5ebec7d5bd14f71427d1e84f3dd0314c0f7b2291e5b200ac8c7c3b92560405160405180910390a45050565b6000611ad58261199d565b611b14576040517f08c379a0000000000000000000000000000000000000000000000000000000008152600401611b0b90613aef565b60405180910390fd5b6000611b1f83610ea9565b90508073ffffffffffffffffffffffffffffffffffffffff168473ffffffffffffffffffffffffffffffffffffffff161480611b615750611b6081856117d5565b5b80611b9f57508373ffffffffffffffffffffffffffffffffffffffff16611b878461083b565b73ffffffffffffffffffffffffffffffffffffffff16145b91505092915050565b8273ffffffffffffffffffffffffffffffffffffffff16611bc882610ea9565b73ffffffffffffffffffffffffffffffffffffffff1614611c1e576040517f08c379a0000000000000000000000000000000000000000000000000000000008152600401611c1590613a4f565b60405180910390fd5b600073ffffffffffffffffffffffffffffffffffffffff168273ffffffffffffffffffffffffffffffffffffffff161415611c8e576040517f08c379a0000000000000000000000000000000000000000000000000000000008152600401611c8590613a8f565b60405180910390fd5b611c99838383612690565b611ca4600082611a11565b6001600360008573ffffffffffffffffffffffffffffffffffffffff1673ffffffffffffffffffffffffffffffffffffffff1681526020019081526020016000206000828254611cf49190613ed5565b925050819055506001600360008473ffffffffffffffffffffffffffffffffffffffff1673ffffffffffffffffffffffffffffffffffffffff1681526020019081526020016000206000828254611d4b9190613dbd565b92505081905550816002600083815260200190815260200160002060006101000a81548173ffffffffffffffffffffffffffffffffffffffff021916908373ffffffffffffffffffffffffffffffffffffffff160217905550808273ffffffffffffffffffffffffffffffffffffffff168473ffffffffffffffffffffffffffffffffffffffff167fddf252ad1be2c89b69c2b068fc378daa952ba7f163c4a11628f55a4df523b3ef60405160405180910390a4611e0a838383612695565b505050565b6060600082511415611e3257604051806020016040528060008152509050611fa9565b60006040518060600160405280604081526020016149626040913990506000600360028551611e619190613dbd565b611e6b9190613e4a565b6004611e779190613e7b565b90506000602082611e889190613dbd565b67ffffffffffffffff811115611ec7577f4e487b7100000000000000000000000000000000000000000000000000000000600052604160045260246000fd5b6040519080825280601f01601f191660200182016040528015611ef95781602001600182028036833780820191505090505b509050818152600183018586518101602084015b81831015611f68576003830192508251603f8160121c168501518253600182019150603f81600c1c168501518253600182019150603f8160061c168501518253600182019150603f8116850151825360018201915050611f0d565b600389510660018114611f825760028114611f9257611f9d565b613d3d60f01b6002830352611f9d565b603d60f81b60018303525b50505050508093505050505b919050565b611fb78261199d565b611ff6576040517f08c379a0000000000000000000000000000000000000000000000000000000008152600401611fed90613b6f565b60405180910390fd5b8060066000848152602001908152602001600020908051906020019061201d929190612cc3565b505050565b6060600082141561206a576040518060400160405280600181526020017f300000000000000000000000000000000000000000000000000000000000000081525090506121f2565b600082905060005b6000821461209c57808061208590614039565b915050600a826120959190613e4a565b9150612072565b60008167ffffffffffffffff8111156120de577f4e487b7100000000000000000000000000000000000000000000000000000000600052604160045260246000fd5b6040519080825280601f01601f1916602001820160405280156121105781602001600182028036833780820191505090505b50905060008290505b600086146121ea5760018161212e9190613ed5565b90506000600a80886121409190613e4a565b61214a9190613e7b565b876121559190613ed5565b60306121619190613e13565b905060008160f81b9050808484815181106121a5577f4e487b7100000000000000000000000000000000000000000000000000000000600052603260045260246000fd5b60200101907effffffffffffffffffffffffffffffffffffffffffffffffffffffffffffff1916908160001a905350600a886121e19190613e4a565b97505050612119565b819450505050505b919050565b60006010600084815260200190815260200160002060009054906101000a900473ffffffffffffffffffffffffffffffffffffffff169050600060116000858152602001908152602001600020549050612251828261269a565b826012600083815260200190815260200160002081905550807faad5362ce528ed941024b95d4c18dfd49b8503e1f586a5c353631d98c2af41b7846040516122999190613caf565b60405180910390a250505050565b8173ffffffffffffffffffffffffffffffffffffffff168373ffffffffffffffffffffffffffffffffffffffff161415612316576040517f08c379a000000000000000000000000000000000000000000000000000000000815260040161230d90613aaf565b60405180910390fd5b80600560008573ffffffffffffffffffffffffffffffffffffffff1673ffffffffffffffffffffffffffffffffffffffff16815260200190815260200160002060008473ffffffffffffffffffffffffffffffffffffffff1673ffffffffffffffffffffffffffffffffffffffff16815260200190815260200160002060006101000a81548160ff0219169083151502179055508173ffffffffffffffffffffffffffffffffffffffff168373ffffffffffffffffffffffffffffffffffffffff167f17307eab39ab6107e8899845ad3d59bd9653f200f220920489ca2b5937696c31836040516124079190613969565b60405180910390a3505050565b61241f848484611ba8565b61242b848484846126b8565b61246a576040517f08c379a000000000000000000000000000000000000000000000000000000000815260040161246190613a2f565b60405180910390fd5b50505050565b606060405180602001604052806000815250905090565b60606124928261199d565b6124d1576040517f08c379a00000000000000000000000000000000000000000000000000000000081526004016124c890613c0f565b60405180910390fd5b60006124db612470565b905060008151116124fb5760405180602001604052806000815250612526565b806125058461284f565b60405160200161251692919061376a565b6040516020818303038152906040525b915050919050565b60007f000000000000000000000000000000000000000000000000000000000000000073ffffffffffffffffffffffffffffffffffffffff16634000aea07f0000000000000000000000000000000000000000000000000000000000000000848660006040516020016125a292919061399f565b6040516020818303038152906040526040518463ffffffff1660e01b81526004016125cf9392919061392b565b602060405180830381600087803b1580156125e957600080fd5b505af11580156125fd573d6000803e3d6000fd5b505050506040513d601f19601f820116820180604052508101906126219190613070565b5060006126448460003060076000898152602001908152602001600020546129fc565b9050600160076000868152602001908152602001600020546126669190613dbd565b60076000868152602001908152602001600020819055506126878482612a38565b91505092915050565b505050565b505050565b6126b4828260405180602001604052806000815250612a6b565b5050565b60006126d98473ffffffffffffffffffffffffffffffffffffffff16612ac6565b15612842578373ffffffffffffffffffffffffffffffffffffffff1663150b7a02612702611a09565b8786866040518563ffffffff1660e01b815260040161272494939291906138df565b602060405180830381600087803b15801561273e57600080fd5b505af192505050801561276f57506040513d601f19601f8201168201806040525081019061276c9190613127565b60015b6127f2573d806000811461279f576040519150601f19603f3d011682016040523d82523d6000602084013e6127a4565b606091505b506000815114156127ea576040517f08c379a00000000000000000000000000000000000000000000000000000000081526004016127e190613a2f565b60405180910390fd5b805181602001fd5b63150b7a0260e01b7bffffffffffffffffffffffffffffffffffffffffffffffffffffffff1916817bffffffffffffffffffffffffffffffffffffffffffffffffffffffff191614915050612847565b600190505b949350505050565b60606000821415612897576040518060400160405280600181526020017f300000000000000000000000000000000000000000000000000000000000000081525090506129f7565b600082905060005b600082146128c95780806128b290614039565b915050600a826128c29190613e4a565b915061289f565b60008167ffffffffffffffff81111561290b577f4e487b7100000000000000000000000000000000000000000000000000000000600052604160045260246000fd5b6040519080825280601f01601f19166020018201604052801561293d5781602001600182028036833780820191505090505b5090505b600085146129f0576001826129569190613ed5565b9150600a856129659190614096565b60306129719190613dbd565b60f81b8183815181106129ad577f4e487b7100000000000000000000000000000000000000000000000000000000600052603260045260246000fd5b60200101907effffffffffffffffffffffffffffffffffffffffffffffffffffffffffffff1916908160001a905350600a856129e99190613e4a565b9450612941565b8093505050505b919050565b600084848484604051602001612a1594939291906139c8565b6040516020818303038152906040528051906020012060001c9050949350505050565b60008282604051602001612a4d929190613727565b60405160208183030381529060405280519060200120905092915050565b612a758383612ae9565b612a8260008484846126b8565b612ac1576040517f08c379a0000000000000000000000000000000000000000000000000000000008152600401612ab890613a2f565b60405180910390fd5b505050565b6000808273ffffffffffffffffffffffffffffffffffffffff163b119050919050565b600073ffffffffffffffffffffffffffffffffffffffff168273ffffffffffffffffffffffffffffffffffffffff161415612b59576040517f08c379a0000000000000000000000000000000000000000000000000000000008152600401612b5090613baf565b60405180910390fd5b612b628161199d565b15612ba2576040517f08c379a0000000000000000000000000000000000000000000000000000000008152600401612b9990613a6f565b60405180910390fd5b612bae60008383612690565b6001600360008473ffffffffffffffffffffffffffffffffffffffff1673ffffffffffffffffffffffffffffffffffffffff1681526020019081526020016000206000828254612bfe9190613dbd565b92505081905550816002600083815260200190815260200160002060006101000a81548173ffffffffffffffffffffffffffffffffffffffff021916908373ffffffffffffffffffffffffffffffffffffffff160217905550808273ffffffffffffffffffffffffffffffffffffffff16600073ffffffffffffffffffffffffffffffffffffffff167fddf252ad1be2c89b69c2b068fc378daa952ba7f163c4a11628f55a4df523b3ef60405160405180910390a4612cbf60008383612695565b5050565b828054612ccf90613fd6565b90600052602060002090601f016020900481019282612cf15760008555612d38565b82601f10612d0a57805160ff1916838001178555612d38565b82800160010185558215612d38579182015b82811115612d37578251825591602001919060010190612d1c565b5b509050612d459190612d49565b5090565b5b80821115612d62576000816000905550600101612d4a565b5090565b6000612d79612d7484613d18565b613cf3565b905082815260208101848484011115612d9157600080fd5b612d9c848285613f94565b509392505050565b6000612db7612db284613d49565b613cf3565b905082815260208101848484011115612dcf57600080fd5b612dda848285613f94565b509392505050565b600081359050612df1816148ee565b92915050565b600081359050612e0681614905565b92915050565b600081519050612e1b81614905565b92915050565b600081359050612e308161491c565b92915050565b600081359050612e4581614933565b92915050565b600081519050612e5a81614933565b92915050565b600082601f830112612e7157600080fd5b8135612e81848260208601612d66565b91505092915050565b600082601f830112612e9b57600080fd5b8135612eab848260208601612da4565b91505092915050565b600081359050612ec38161494a565b92915050565b600060208284031215612edb57600080fd5b6000612ee984828501612de2565b91505092915050565b60008060408385031215612f0557600080fd5b6000612f1385828601612de2565b9250506020612f2485828601612de2565b9150509250929050565b600080600060608486031215612f4357600080fd5b6000612f5186828701612de2565b9350506020612f6286828701612de2565b9250506040612f7386828701612eb4565b9150509250925092565b60008060008060808587031215612f9357600080fd5b6000612fa187828801612de2565b9450506020612fb287828801612de2565b9350506040612fc387828801612eb4565b925050606085013567ffffffffffffffff811115612fe057600080fd5b612fec87828801612e60565b91505092959194509250565b6000806040838503121561300b57600080fd5b600061301985828601612de2565b925050602061302a85828601612df7565b9150509250929050565b6000806040838503121561304757600080fd5b600061305585828601612de2565b925050602061306685828601612eb4565b9150509250929050565b60006020828403121561308257600080fd5b600061309084828501612e0c565b91505092915050565b6000602082840312156130ab57600080fd5b60006130b984828501612e21565b91505092915050565b600080604083850312156130d557600080fd5b60006130e385828601612e21565b92505060206130f485828601612eb4565b9150509250929050565b60006020828403121561311057600080fd5b600061311e84828501612e36565b91505092915050565b60006020828403121561313957600080fd5b600061314784828501612e4b565b91505092915050565b60006020828403121561316257600080fd5b600082013567ffffffffffffffff81111561317c57600080fd5b61318884828501612e8a565b91505092915050565b6000602082840312156131a357600080fd5b60006131b184828501612eb4565b91505092915050565b6131c381613f09565b82525050565b6131d281613f1b565b82525050565b6131e181613f27565b82525050565b6131f86131f382613f27565b614082565b82525050565b600061320982613d7a565b6132138185613d90565b9350613223818560208601613fa3565b61322c81614183565b840191505092915050565b600061324282613d85565b61324c8185613da1565b935061325c818560208601613fa3565b61326581614183565b840191505092915050565b600061327b82613d85565b6132858185613db2565b9350613295818560208601613fa3565b80840191505092915050565b60006132ae603283613da1565b91506132b982614194565b604082019050919050565b60006132d1602583613da1565b91506132dc826141e3565b604082019050919050565b60006132f4601c83613da1565b91506132ff82614232565b602082019050919050565b6000613317601483613db2565b91506133228261425b565b601482019050919050565b600061333a602483613da1565b915061334582614284565b604082019050919050565b600061335d601983613da1565b9150613368826142d3565b602082019050919050565b6000613380601883613da1565b915061338b826142fc565b602082019050919050565b60006133a3602c83613da1565b91506133ae82614325565b604082019050919050565b60006133c6600183613db2565b91506133d182614374565b600182019050919050565b60006133e9600383613db2565b91506133f48261439d565b600382019050919050565b600061340c603883613da1565b9150613417826143c6565b604082019050919050565b600061342f602a83613da1565b915061343a82614415565b604082019050919050565b6000613452602983613da1565b915061345d82614464565b604082019050919050565b6000613475602e83613da1565b9150613480826144b3565b604082019050919050565b6000613498602a83613db2565b91506134a382614502565b602a82019050919050565b60006134bb602083613da1565b91506134c682614551565b602082019050919050565b60006134de601f83613db2565b91506134e98261457a565b601f82019050919050565b6000613501600283613db2565b915061350c826145a3565b600282019050919050565b6000613524602083613da1565b915061352f826145cc565b602082019050919050565b6000613547603183613da1565b9150613552826145f5565b604082019050919050565b600061356a602c83613da1565b915061357582614644565b604082019050919050565b600061358d603083613db2565b915061359882614693565b603082019050919050565b60006135b0602f83613da1565b91506135bb826146e2565b604082019050919050565b60006135d3601f83613da1565b91506135de82614731565b602082019050919050565b60006135f6601283613db2565b91506136018261475a565b601282019050919050565b6000613619602183613da1565b915061362482614783565b604082019050919050565b600061363c603183613da1565b9150613647826147d2565b604082019050919050565b600061365f600283613db2565b915061366a82614821565b600282019050919050565b6000613682600a83613db2565b915061368d8261484a565b600a82019050919050565b60006136a5600683613db2565b91506136b082614873565b600682019050919050565b60006136c8601e83613da1565b91506136d38261489c565b602082019050919050565b60006136eb600983613db2565b91506136f6826148c5565b600982019050919050565b61370a81613f7d565b82525050565b61372161371c82613f7d565b61408c565b82525050565b600061373382856131e7565b6020820191506137438284613710565b6020820191508190509392505050565b600061375f8284613270565b915081905092915050565b60006137768285613270565b91506137828284613270565b91508190509392505050565b600061379a8286613270565b91506137a5826133b9565b91506137b18285613270565b91506137bc826133b9565b91506137c88284613270565b9150819050949350505050565b60006137e18285613270565b91506137ec826134d1565b91506137f88284613270565b9150613803826133dc565b91508190509392505050565b600061381b8284613270565b915061382682613698565b915081905092915050565b600061383c8261330a565b91506138478261348b565b9150613852826135e9565b915061385d82613675565b91506138698284613270565b9150613874826134f4565b915081905092915050565b600061388a82613580565b91506138968285613270565b91506138a1826136de565b91506138ad8284613270565b91506138b882613652565b91508190509392505050565b60006020820190506138d960008301846131ba565b92915050565b60006080820190506138f460008301876131ba565b61390160208301866131ba565b61390e6040830185613701565b818103606083015261392081846131fe565b905095945050505050565b600060608201905061394060008301866131ba565b61394d6020830185613701565b818103604083015261395f81846131fe565b9050949350505050565b600060208201905061397e60008301846131c9565b92915050565b600060208201905061399960008301846131d8565b92915050565b60006040820190506139b460008301856131d8565b6139c16020830184613701565b9392505050565b60006080820190506139dd60008301876131d8565b6139ea6020830186613701565b6139f760408301856131ba565b613a046060830184613701565b95945050505050565b60006020820190508181036000830152613a278184613237565b905092915050565b60006020820190508181036000830152613a48816132a1565b9050919050565b60006020820190508181036000830152613a68816132c4565b9050919050565b60006020820190508181036000830152613a88816132e7565b9050919050565b60006020820190508181036000830152613aa88161332d565b9050919050565b60006020820190508181036000830152613ac881613350565b9050919050565b60006020820190508181036000830152613ae881613373565b9050919050565b60006020820190508181036000830152613b0881613396565b9050919050565b60006020820190508181036000830152613b28816133ff565b9050919050565b60006020820190508181036000830152613b4881613422565b9050919050565b60006020820190508181036000830152613b6881613445565b9050919050565b60006020820190508181036000830152613b8881613468565b9050919050565b60006020820190508181036000830152613ba8816134ae565b9050919050565b60006020820190508181036000830152613bc881613517565b9050919050565b60006020820190508181036000830152613be88161353a565b9050919050565b60006020820190508181036000830152613c088161355d565b9050919050565b60006020820190508181036000830152613c28816135a3565b9050919050565b60006020820190508181036000830152613c48816135c6565b9050919050565b60006020820190508181036000830152613c688161360c565b9050919050565b60006020820190508181036000830152613c888161362f565b9050919050565b60006020820190508181036000830152613ca8816136bb565b9050919050565b6000602082019050613cc46000830184613701565b92915050565b6000604082019050613cdf6000830185613701565b613cec6020830184613701565b9392505050565b6000613cfd613d0e565b9050613d098282614008565b919050565b6000604051905090565b600067ffffffffffffffff821115613d3357613d32614154565b5b613d3c82614183565b9050602081019050919050565b600067ffffffffffffffff821115613d6457613d63614154565b5b613d6d82614183565b9050602081019050919050565b600081519050919050565b600081519050919050565b600082825260208201905092915050565b600082825260208201905092915050565b600081905092915050565b6000613dc882613f7d565b9150613dd383613f7d565b9250827fffffffffffffffffffffffffffffffffffffffffffffffffffffffffffffffff03821115613e0857613e076140c7565b5b828201905092915050565b6000613e1e82613f87565b9150613e2983613f87565b92508260ff03821115613e3f57613e3e6140c7565b5b828201905092915050565b6000613e5582613f7d565b9150613e6083613f7d565b925082613e7057613e6f6140f6565b5b828204905092915050565b6000613e8682613f7d565b9150613e9183613f7d565b9250817fffffffffffffffffffffffffffffffffffffffffffffffffffffffffffffffff0483118215151615613eca57613ec96140c7565b5b828202905092915050565b6000613ee082613f7d565b9150613eeb83613f7d565b925082821015613efe57613efd6140c7565b5b828203905092915050565b6000613f1482613f5d565b9050919050565b60008115159050919050565b6000819050919050565b60007fffffffff0000000000000000000000000000000000000000000000000000000082169050919050565b600073ffffffffffffffffffffffffffffffffffffffff82169050919050565b6000819050919050565b600060ff82169050919050565b82818337600083830152505050565b60005b83811015613fc1578082015181840152602081019050613fa6565b83811115613fd0576000848401525b50505050565b60006002820490506001821680613fee57607f821691505b6020821081141561400257614001614125565b5b50919050565b61401182614183565b810181811067ffffffffffffffff821117156140305761402f614154565b5b80604052505050565b600061404482613f7d565b91507fffffffffffffffffffffffffffffffffffffffffffffffffffffffffffffffff821415614077576140766140c7565b5b600182019050919050565b6000819050919050565b6000819050919050565b60006140a182613f7d565b91506140ac83613f7d565b9250826140bc576140bb6140f6565b5b828206905092915050565b7f4e487b7100000000000000000000000000000000000000000000000000000000600052601160045260246000fd5b7f4e487b7100000000000000000000000000000000000000000000000000000000600052601260045260246000fd5b7f4e487b7100000000000000000000000000000000000000000000000000000000600052602260045260246000fd5b7f4e487b7100000000000000000000000000000000000000000000000000000000600052604160045260246000fd5b6000601f19601f8301169050919050565b7f4552433732313a207472616e7366657220746f206e6f6e20455243373231526560008201527f63656976657220696d706c656d656e7465720000000000000000000000000000602082015250565b7f4552433732313a207472616e736665722066726f6d20696e636f72726563742060008201527f6f776e6572000000000000000000000000000000000000000000000000000000602082015250565b7f4552433732313a20746f6b656e20616c7265616479206d696e74656400000000600082015250565b7f7b226e616d65223a2022535647204e4654222c20000000000000000000000000600082015250565b7f4552433732313a207472616e7366657220746f20746865207a65726f2061646460008201527f7265737300000000000000000000000000000000000000000000000000000000602082015250565b7f4552433732313a20617070726f766520746f2063616c6c657200000000000000600082015250565b7f746f6b656e55524920697320616c726561647920736574210000000000000000600082015250565b7f4552433732313a206f70657261746f7220717565727920666f72206e6f6e657860008201527f697374656e7420746f6b656e0000000000000000000000000000000000000000602082015250565b7f2000000000000000000000000000000000000000000000000000000000000000600082015250565b7f272f3e0000000000000000000000000000000000000000000000000000000000600082015250565b7f4552433732313a20617070726f76652063616c6c6572206973206e6f74206f7760008201527f6e6572206e6f7220617070726f76656420666f7220616c6c0000000000000000602082015250565b7f4552433732313a2062616c616e636520717565727920666f7220746865207a6560008201527f726f206164647265737300000000000000000000000000000000000000000000602082015250565b7f4552433732313a206f776e657220717565727920666f72206e6f6e657869737460008201527f656e7420746f6b656e0000000000000000000000000000000000000000000000602082015250565b7f45524337323155524953746f726167653a2055524920736574206f66206e6f6e60008201527f6578697374656e7420746f6b656e000000000000000000000000000000000000602082015250565b7f226465736372697074696f6e223a2022416e204e4654206261736564206f6e2060008201527f616e2053564721222c2000000000000000000000000000000000000000000000602082015250565b7f546f6b656e496420686173206e6f74206265656e206d696e7465642079657421600082015250565b7f272066696c6c203d20277472616e73706172656e7427207374726f6b653d2700600082015250565b7f227d000000000000000000000000000000000000000000000000000000000000600082015250565b7f4552433732313a206d696e7420746f20746865207a65726f2061646472657373600082015250565b7f45524337323155524953746f726167653a2055524920717565727920666f722060008201527f6e6f6e6578697374656e7420746f6b656e000000000000000000000000000000602082015250565b7f4552433732313a20617070726f76656420717565727920666f72206e6f6e657860008201527f697374656e7420746f6b656e0000000000000000000000000000000000000000602082015250565b7f3c73766720786d6c6e733d27687474703a2f2f7777772e77332e6f72672f323060008201527f30302f73766727206865696768743d2700000000000000000000000000000000602082015250565b7f4552433732314d657461646174613a2055524920717565727920666f72206e6f60008201527f6e6578697374656e7420746f6b656e0000000000000000000000000000000000602082015250565b7f4f6e6c7920565246436f6f7264696e61746f722063616e2066756c66696c6c00600082015250565b7f2261747472696275746573223a2022222c200000000000000000000000000000600082015250565b7f4552433732313a20617070726f76616c20746f2063757272656e74206f776e6560008201527f7200000000000000000000000000000000000000000000000000000000000000602082015250565b7f4552433732313a207472616e736665722063616c6c6572206973206e6f74206f60008201527f776e6572206e6f7220617070726f766564000000000000000000000000000000602082015250565b7f273e000000000000000000000000000000000000000000000000000000000000600082015250565b7f22696d616765223a202200000000000000000000000000000000000000000000600082015250565b7f3c2f7376673e0000000000000000000000000000000000000000000000000000600082015250565b7f4e65656420746f207761697420666f7220436861696e6c696e6b205652460000600082015250565b7f272077696474683d270000000000000000000000000000000000000000000000600082015250565b6148f781613f09565b811461490257600080fd5b50565b61490e81613f1b565b811461491957600080fd5b50565b61492581613f27565b811461493057600080fd5b50565b61493c81613f31565b811461494757600080fd5b50565b61495381613f7d565b811461495e57600080fd5b5056fe4142434445464748494a4b4c4d4e4f505152535455565758595a6162636465666768696a6b6c6d6e6f707172737475767778797a303132333435363738392b2fa2646970667358221220474f7edb16c1ec2d325594d90478d4110eaaa092d7790372815b6194d781a81f64736f6c63430008040033",
  "devdoc": {
    "kind": "dev",
    "methods": {
      "approve(address,uint256)": {
        "details": "See {IERC721-approve}."
      },
      "balanceOf(address)": {
        "details": "See {IERC721-balanceOf}."
      },
      "getApproved(uint256)": {
        "details": "See {IERC721-getApproved}."
      },
      "isApprovedForAll(address,address)": {
        "details": "See {IERC721-isApprovedForAll}."
      },
      "name()": {
        "details": "See {IERC721Metadata-name}."
      },
      "ownerOf(uint256)": {
        "details": "See {IERC721-ownerOf}."
      },
      "safeTransferFrom(address,address,uint256)": {
        "details": "See {IERC721-safeTransferFrom}."
      },
      "safeTransferFrom(address,address,uint256,bytes)": {
        "details": "See {IERC721-safeTransferFrom}."
      },
      "setApprovalForAll(address,bool)": {
        "details": "See {IERC721-setApprovalForAll}."
      },
      "supportsInterface(bytes4)": {
        "details": "See {IERC165-supportsInterface}."
      },
      "symbol()": {
        "details": "See {IERC721Metadata-symbol}."
      },
      "tokenURI(uint256)": {
        "details": "See {IERC721Metadata-tokenURI}."
      },
      "transferFrom(address,address,uint256)": {
        "details": "See {IERC721-transferFrom}."
      }
    },
    "version": 1
  },
  "userdoc": {
    "kind": "user",
    "methods": {},
    "version": 1
  },
  "storageLayout": {
    "storage": [
      {
        "astId": 396,
        "contract": "contracts/RandomSVG.sol:RandomSVG",
        "label": "_name",
        "offset": 0,
        "slot": "0",
        "type": "t_string_storage"
      },
      {
        "astId": 398,
        "contract": "contracts/RandomSVG.sol:RandomSVG",
        "label": "_symbol",
        "offset": 0,
        "slot": "1",
        "type": "t_string_storage"
      },
      {
        "astId": 402,
        "contract": "contracts/RandomSVG.sol:RandomSVG",
        "label": "_owners",
        "offset": 0,
        "slot": "2",
        "type": "t_mapping(t_uint256,t_address)"
      },
      {
        "astId": 406,
        "contract": "contracts/RandomSVG.sol:RandomSVG",
        "label": "_balances",
        "offset": 0,
        "slot": "3",
        "type": "t_mapping(t_address,t_uint256)"
      },
      {
        "astId": 410,
        "contract": "contracts/RandomSVG.sol:RandomSVG",
        "label": "_tokenApprovals",
        "offset": 0,
        "slot": "4",
        "type": "t_mapping(t_uint256,t_address)"
      },
      {
        "astId": 416,
        "contract": "contracts/RandomSVG.sol:RandomSVG",
        "label": "_operatorApprovals",
        "offset": 0,
        "slot": "5",
        "type": "t_mapping(t_address,t_mapping(t_address,t_bool))"
      },
      {
        "astId": 1383,
        "contract": "contracts/RandomSVG.sol:RandomSVG",
        "label": "_tokenURIs",
        "offset": 0,
        "slot": "6",
        "type": "t_mapping(t_uint256,t_string_storage)"
      },
      {
        "astId": 79,
        "contract": "contracts/RandomSVG.sol:RandomSVG",
        "label": "nonces",
        "offset": 0,
        "slot": "7",
        "type": "t_mapping(t_bytes32,t_uint256)"
      },
      {
        "astId": 2208,
        "contract": "contracts/RandomSVG.sol:RandomSVG",
        "label": "keyHash",
        "offset": 0,
        "slot": "8",
        "type": "t_bytes32"
      },
      {
        "astId": 2210,
        "contract": "contracts/RandomSVG.sol:RandomSVG",
        "label": "fee",
        "offset": 0,
        "slot": "9",
        "type": "t_uint256"
      },
      {
        "astId": 2212,
        "contract": "contracts/RandomSVG.sol:RandomSVG",
        "label": "tokenCounter",
        "offset": 0,
        "slot": "10",
        "type": "t_uint256"
      },
      {
        "astId": 2214,
        "contract": "contracts/RandomSVG.sol:RandomSVG",
        "label": "maxNumberOfPaths",
        "offset": 0,
        "slot": "11",
        "type": "t_uint256"
      },
      {
        "astId": 2216,
        "contract": "contracts/RandomSVG.sol:RandomSVG",
        "label": "maxNumberOfPathCommands",
        "offset": 0,
        "slot": "12",
        "type": "t_uint256"
      },
      {
        "astId": 2218,
        "contract": "contracts/RandomSVG.sol:RandomSVG",
        "label": "size",
        "offset": 0,
        "slot": "13",
        "type": "t_uint256"
      },
      {
        "astId": 2221,
        "contract": "contracts/RandomSVG.sol:RandomSVG",
        "label": "pathCommands",
        "offset": 0,
        "slot": "14",
        "type": "t_array(t_string_storage)dyn_storage"
      },
      {
        "astId": 2224,
        "contract": "contracts/RandomSVG.sol:RandomSVG",
        "label": "colors",
        "offset": 0,
        "slot": "15",
        "type": "t_array(t_string_storage)dyn_storage"
      },
      {
        "astId": 2228,
        "contract": "contracts/RandomSVG.sol:RandomSVG",
        "label": "requestIdToSender",
        "offset": 0,
        "slot": "16",
        "type": "t_mapping(t_bytes32,t_address)"
      },
      {
        "astId": 2232,
        "contract": "contracts/RandomSVG.sol:RandomSVG",
        "label": "requestIdToTokenId",
        "offset": 0,
        "slot": "17",
        "type": "t_mapping(t_bytes32,t_uint256)"
      },
      {
        "astId": 2236,
        "contract": "contracts/RandomSVG.sol:RandomSVG",
        "label": "tokenIdToRandomNumber",
        "offset": 0,
        "slot": "18",
        "type": "t_mapping(t_uint256,t_uint256)"
      }
    ],
    "types": {
      "t_address": {
        "encoding": "inplace",
        "label": "address",
        "numberOfBytes": "20"
      },
      "t_array(t_string_storage)dyn_storage": {
        "base": "t_string_storage",
        "encoding": "dynamic_array",
        "label": "string[]",
        "numberOfBytes": "32"
      },
      "t_bool": {
        "encoding": "inplace",
        "label": "bool",
        "numberOfBytes": "1"
      },
      "t_bytes32": {
        "encoding": "inplace",
        "label": "bytes32",
        "numberOfBytes": "32"
      },
      "t_mapping(t_address,t_bool)": {
        "encoding": "mapping",
        "key": "t_address",
        "label": "mapping(address => bool)",
        "numberOfBytes": "32",
        "value": "t_bool"
      },
      "t_mapping(t_address,t_mapping(t_address,t_bool))": {
        "encoding": "mapping",
        "key": "t_address",
        "label": "mapping(address => mapping(address => bool))",
        "numberOfBytes": "32",
        "value": "t_mapping(t_address,t_bool)"
      },
      "t_mapping(t_address,t_uint256)": {
        "encoding": "mapping",
        "key": "t_address",
        "label": "mapping(address => uint256)",
        "numberOfBytes": "32",
        "value": "t_uint256"
      },
      "t_mapping(t_bytes32,t_address)": {
        "encoding": "mapping",
        "key": "t_bytes32",
        "label": "mapping(bytes32 => address)",
        "numberOfBytes": "32",
        "value": "t_address"
      },
      "t_mapping(t_bytes32,t_uint256)": {
        "encoding": "mapping",
        "key": "t_bytes32",
        "label": "mapping(bytes32 => uint256)",
        "numberOfBytes": "32",
        "value": "t_uint256"
      },
      "t_mapping(t_uint256,t_address)": {
        "encoding": "mapping",
        "key": "t_uint256",
        "label": "mapping(uint256 => address)",
        "numberOfBytes": "32",
        "value": "t_address"
      },
      "t_mapping(t_uint256,t_string_storage)": {
        "encoding": "mapping",
        "key": "t_uint256",
        "label": "mapping(uint256 => string)",
        "numberOfBytes": "32",
        "value": "t_string_storage"
      },
      "t_mapping(t_uint256,t_uint256)": {
        "encoding": "mapping",
        "key": "t_uint256",
        "label": "mapping(uint256 => uint256)",
        "numberOfBytes": "32",
        "value": "t_uint256"
      },
      "t_string_storage": {
        "encoding": "bytes",
        "label": "string",
        "numberOfBytes": "32"
      },
      "t_uint256": {
        "encoding": "inplace",
        "label": "uint256",
        "numberOfBytes": "32"
      }
    }
  }
}