{
  "address": "0xEBd7D120CC6d8b230bBaaEAfc7C3fCD6d5492a4a",
  "abi": [
    {
      "inputs": [],
      "stateMutability": "nonpayable",
      "type": "constructor"
    },
    {
      "anonymous": false,
      "inputs": [
        {
          "indexed": true,
          "internalType": "address",
          "name": "owner",
          "type": "address"
        },
        {
          "indexed": true,
          "internalType": "address",
          "name": "approved",
          "type": "address"
        },
        {
          "indexed": true,
          "internalType": "uint256",
          "name": "tokenId",
          "type": "uint256"
        }
      ],
      "name": "Approval",
      "type": "event"
    },
    {
      "anonymous": false,
      "inputs": [
        {
          "indexed": true,
          "internalType": "address",
          "name": "owner",
          "type": "address"
        },
        {
          "indexed": true,
          "internalType": "address",
          "name": "operator",
          "type": "address"
        },
        {
          "indexed": false,
          "internalType": "bool",
          "name": "approved",
          "type": "bool"
        }
      ],
      "name": "ApprovalForAll",
      "type": "event"
    },
    {
      "anonymous": false,
      "inputs": [
        {
          "indexed": true,
          "internalType": "uint256",
          "name": "tokenId",
          "type": "uint256"
        },
        {
          "indexed": false,
          "internalType": "string",
          "name": "tokenURI",
          "type": "string"
        }
      ],
      "name": "CreatedSVGNFT",
      "type": "event"
    },
    {
      "anonymous": false,
      "inputs": [
        {
          "indexed": true,
          "internalType": "address",
          "name": "previousOwner",
          "type": "address"
        },
        {
          "indexed": true,
          "internalType": "address",
          "name": "newOwner",
          "type": "address"
        }
      ],
      "name": "OwnershipTransferred",
      "type": "event"
    },
    {
      "anonymous": false,
      "inputs": [
        {
          "indexed": true,
          "internalType": "address",
          "name": "from",
          "type": "address"
        },
        {
          "indexed": true,
          "internalType": "address",
          "name": "to",
          "type": "address"
        },
        {
          "indexed": true,
          "internalType": "uint256",
          "name": "tokenId",
          "type": "uint256"
        }
      ],
      "name": "Transfer",
      "type": "event"
    },
    {
      "inputs": [
        {
          "internalType": "address",
          "name": "to",
          "type": "address"
        },
        {
          "internalType": "uint256",
          "name": "tokenId",
          "type": "uint256"
        }
      ],
      "name": "approve",
      "outputs": [],
      "stateMutability": "nonpayable",
      "type": "function"
    },
    {
      "inputs": [
        {
          "internalType": "address",
          "name": "owner",
          "type": "address"
        }
      ],
      "name": "balanceOf",
      "outputs": [
        {
          "internalType": "uint256",
          "name": "",
          "type": "uint256"
        }
      ],
      "stateMutability": "view",
      "type": "function"
    },
    {
      "inputs": [
        {
          "internalType": "string",
          "name": "_svg",
          "type": "string"
        }
      ],
      "name": "create",
      "outputs": [],
      "stateMutability": "nonpayable",
      "type": "function"
    },
    {
      "inputs": [
        {
          "internalType": "string",
          "name": "_imageURI",
          "type": "string"
        }
      ],
      "name": "formatTokenURI",
      "outputs": [
        {
          "internalType": "string",
          "name": "",
          "type": "string"
        }
      ],
      "stateMutability": "pure",
      "type": "function"
    },
    {
      "inputs": [
        {
          "internalType": "uint256",
          "name": "tokenId",
          "type": "uint256"
        }
      ],
      "name": "getApproved",
      "outputs": [
        {
          "internalType": "address",
          "name": "",
          "type": "address"
        }
      ],
      "stateMutability": "view",
      "type": "function"
    },
    {
      "inputs": [
        {
          "internalType": "address",
          "name": "owner",
          "type": "address"
        },
        {
          "internalType": "address",
          "name": "operator",
          "type": "address"
        }
      ],
      "name": "isApprovedForAll",
      "outputs": [
        {
          "internalType": "bool",
          "name": "",
          "type": "bool"
        }
      ],
      "stateMutability": "view",
      "type": "function"
    },
    {
      "inputs": [],
      "name": "name",
      "outputs": [
        {
          "internalType": "string",
          "name": "",
          "type": "string"
        }
      ],
      "stateMutability": "view",
      "type": "function"
    },
    {
      "inputs": [],
      "name": "owner",
      "outputs": [
        {
          "internalType": "address",
          "name": "",
          "type": "address"
        }
      ],
      "stateMutability": "view",
      "type": "function"
    },
    {
      "inputs": [
        {
          "internalType": "uint256",
          "name": "tokenId",
          "type": "uint256"
        }
      ],
      "name": "ownerOf",
      "outputs": [
        {
          "internalType": "address",
          "name": "",
          "type": "address"
        }
      ],
      "stateMutability": "view",
      "type": "function"
    },
    {
      "inputs": [],
      "name": "renounceOwnership",
      "outputs": [],
      "stateMutability": "nonpayable",
      "type": "function"
    },
    {
      "inputs": [
        {
          "internalType": "address",
          "name": "from",
          "type": "address"
        },
        {
          "internalType": "address",
          "name": "to",
          "type": "address"
        },
        {
          "internalType": "uint256",
          "name": "tokenId",
          "type": "uint256"
        }
      ],
      "name": "safeTransferFrom",
      "outputs": [],
      "stateMutability": "nonpayable",
      "type": "function"
    },
    {
      "inputs": [
        {
          "internalType": "address",
          "name": "from",
          "type": "address"
        },
        {
          "internalType": "address",
          "name": "to",
          "type": "address"
        },
        {
          "internalType": "uint256",
          "name": "tokenId",
          "type": "uint256"
        },
        {
          "internalType": "bytes",
          "name": "_data",
          "type": "bytes"
        }
      ],
      "name": "safeTransferFrom",
      "outputs": [],
      "stateMutability": "nonpayable",
      "type": "function"
    },
    {
      "inputs": [
        {
          "internalType": "address",
          "name": "operator",
          "type": "address"
        },
        {
          "internalType": "bool",
          "name": "approved",
          "type": "bool"
        }
      ],
      "name": "setApprovalForAll",
      "outputs": [],
      "stateMutability": "nonpayable",
      "type": "function"
    },
    {
      "inputs": [
        {
          "internalType": "bytes4",
          "name": "interfaceId",
          "type": "bytes4"
        }
      ],
      "name": "supportsInterface",
      "outputs": [
        {
          "internalType": "bool",
          "name": "",
          "type": "bool"
        }
      ],
      "stateMutability": "view",
      "type": "function"
    },
    {
      "inputs": [
        {
          "internalType": "string",
          "name": "_svg",
          "type": "string"
        }
      ],
      "name": "svgToImageURI",
      "outputs": [
        {
          "internalType": "string",
          "name": "",
          "type": "string"
        }
      ],
      "stateMutability": "pure",
      "type": "function"
    },
    {
      "inputs": [],
      "name": "symbol",
      "outputs": [
        {
          "internalType": "string",
          "name": "",
          "type": "string"
        }
      ],
      "stateMutability": "view",
      "type": "function"
    },
    {
      "inputs": [],
      "name": "tokenCounter",
      "outputs": [
        {
          "internalType": "uint256",
          "name": "",
          "type": "uint256"
        }
      ],
      "stateMutability": "view",
      "type": "function"
    },
    {
      "inputs": [
        {
          "internalType": "uint256",
          "name": "tokenId",
          "type": "uint256"
        }
      ],
      "name": "tokenURI",
      "outputs": [
        {
          "internalType": "string",
          "name": "",
          "type": "string"
        }
      ],
      "stateMutability": "view",
      "type": "function"
    },
    {
      "inputs": [
        {
          "internalType": "address",
          "name": "from",
          "type": "address"
        },
        {
          "internalType": "address",
          "name": "to",
          "type": "address"
        },
        {
          "internalType": "uint256",
          "name": "tokenId",
          "type": "uint256"
        }
      ],
      "name": "transferFrom",
      "outputs": [],
      "stateMutability": "nonpayable",
      "type": "function"
    },
    {
      "inputs": [
        {
          "internalType": "address",
          "name": "newOwner",
          "type": "address"
        }
      ],
      "name": "transferOwnership",
      "outputs": [],
      "stateMutability": "nonpayable",
      "type": "function"
    }
  ],
  "transactionHash": "0xbc4173e1926178912b649745bcfba90e9563d7d944eb07c6ff40abf50c7ec934",
  "args": [],
  "numDeployments": 1,
  "solcInputHash": "320cfb38f0dc94c958b3f65c124203c1",
  "bytecode": "0x60806040523480156200001157600080fd5b506040518060400160405280600681526020017f5356474e465400000000000000000000000000000000000000000000000000008152506040518060400160405280600681526020017f7376674e46540000000000000000000000000000000000000000000000000000815250816000908051906020019062000096929190620001ae565b508060019080519060200190620000af929190620001ae565b505050620000d2620000c6620000e060201b60201c565b620000e860201b60201c565b6000600881905550620002c3565b600033905090565b6000600760009054906101000a900473ffffffffffffffffffffffffffffffffffffffff16905081600760006101000a81548173ffffffffffffffffffffffffffffffffffffffff021916908373ffffffffffffffffffffffffffffffffffffffff1602179055508173ffffffffffffffffffffffffffffffffffffffff168173ffffffffffffffffffffffffffffffffffffffff167f8be0079c531659141344cd1fd0a4f28419497f9722a3daafe3b4186f6b6457e060405160405180910390a35050565b828054620001bc906200025e565b90600052602060002090601f016020900481019282620001e057600085556200022c565b82601f10620001fb57805160ff19168380011785556200022c565b828001600101855582156200022c579182015b828111156200022b5782518255916020019190600101906200020e565b5b5090506200023b91906200023f565b5090565b5b808211156200025a57600081600090555060010162000240565b5090565b600060028204905060018216806200027757607f821691505b602082108114156200028e576200028d62000294565b5b50919050565b7f4e487b7100000000000000000000000000000000000000000000000000000000600052602260045260246000fd5b6135f480620002d36000396000f3fe608060405234801561001057600080fd5b506004361061012c5760003560e01c806371aee193116100ad578063b88d4fde11610071578063b88d4fde14610341578063c87b56dd1461035d578063d082e3811461038d578063e985e9c5146103ab578063f2fde38b146103db5761012c565b806371aee1931461029d5780638da5cb5b146102cd57806395d89b41146102eb578063a22cb46514610309578063b6a46b3b146103255761012c565b806330d871c6116100f457806330d871c6146101e757806342842e0e146102175780636352211e1461023357806370a0823114610263578063715018a6146102935761012c565b806301ffc9a71461013157806306fdde0314610161578063081812fc1461017f578063095ea7b3146101af57806323b872dd146101cb575b600080fd5b61014b600480360381019061014691906122c1565b6103f7565b6040516101589190612862565b60405180910390f35b6101696104d9565b604051610176919061287d565b60405180910390f35b61019960048036038101906101949190612354565b61056b565b6040516101a691906127fb565b60405180910390f35b6101c960048036038101906101c49190612285565b6105f0565b005b6101e560048036038101906101e0919061217f565b610708565b005b61020160048036038101906101fc9190612313565b610768565b60405161020e919061287d565b60405180910390f35b610231600480360381019061022c919061217f565b610801565b005b61024d60048036038101906102489190612354565b610821565b60405161025a91906127fb565b60405180910390f35b61027d6004803603810190610278919061211a565b6108d3565b60405161028a9190612adf565b60405180910390f35b61029b61098b565b005b6102b760048036038101906102b29190612313565b610a13565b6040516102c4919061287d565b60405180910390f35b6102d5610aa0565b6040516102e291906127fb565b60405180910390f35b6102f3610aca565b604051610300919061287d565b60405180910390f35b610323600480360381019061031e9190612249565b610b5c565b005b61033f600480360381019061033a9190612313565b610b72565b005b61035b600480360381019061035691906121ce565b610bf8565b005b61037760048036038101906103729190612354565b610c5a565b604051610384919061287d565b60405180910390f35b610395610dac565b6040516103a29190612adf565b60405180910390f35b6103c560048036038101906103c09190612143565b610db2565b6040516103d29190612862565b60405180910390f35b6103f560048036038101906103f0919061211a565b610e46565b005b60007f80ac58cd000000000000000000000000000000000000000000000000000000007bffffffffffffffffffffffffffffffffffffffffffffffffffffffff1916827bffffffffffffffffffffffffffffffffffffffffffffffffffffffff191614806104c257507f5b5e139f000000000000000000000000000000000000000000000000000000007bffffffffffffffffffffffffffffffffffffffffffffffffffffffff1916827bffffffffffffffffffffffffffffffffffffffffffffffffffffffff1916145b806104d257506104d182610f3e565b5b9050919050565b6060600080546104e890612d8f565b80601f016020809104026020016040519081016040528092919081815260200182805461051490612d8f565b80156105615780601f1061053657610100808354040283529160200191610561565b820191906000526020600020905b81548152906001019060200180831161054457829003601f168201915b5050505050905090565b600061057682610fa8565b6105b5576040517f08c379a00000000000000000000000000000000000000000000000000000000081526004016105ac90612a3f565b60405180910390fd5b6004600083815260200190815260200160002060009054906101000a900473ffffffffffffffffffffffffffffffffffffffff169050919050565b60006105fb82610821565b90508073ffffffffffffffffffffffffffffffffffffffff168373ffffffffffffffffffffffffffffffffffffffff16141561066c576040517f08c379a000000000000000000000000000000000000000000000000000000000815260040161066390612a9f565b60405180910390fd5b8073ffffffffffffffffffffffffffffffffffffffff1661068b611014565b73ffffffffffffffffffffffffffffffffffffffff1614806106ba57506106b9816106b4611014565b610db2565b5b6106f9576040517f08c379a00000000000000000000000000000000000000000000000000000000081526004016106f09061297f565b60405180910390fd5b610703838361101c565b505050565b610719610713611014565b826110d5565b610758576040517f08c379a000000000000000000000000000000000000000000000000000000000815260040161074f90612abf565b60405180910390fd5b6107638383836111b3565b505050565b606060006040518060400160405280601a81526020017f646174613a696d6167652f7376672b786d6c3b6261736536342c000000000000815250905060006107ce846040516020016107ba9190612772565b60405160208183030381529060405261141a565b9050600082826040516020016107e5929190612789565b6040516020818303038152906040529050809350505050919050565b61081c83838360405180602001604052806000815250610bf8565b505050565b6000806002600084815260200190815260200160002060009054906101000a900473ffffffffffffffffffffffffffffffffffffffff169050600073ffffffffffffffffffffffffffffffffffffffff168173ffffffffffffffffffffffffffffffffffffffff1614156108ca576040517f08c379a00000000000000000000000000000000000000000000000000000000081526004016108c1906129bf565b60405180910390fd5b80915050919050565b60008073ffffffffffffffffffffffffffffffffffffffff168273ffffffffffffffffffffffffffffffffffffffff161415610944576040517f08c379a000000000000000000000000000000000000000000000000000000000815260040161093b9061299f565b60405180910390fd5b600360008373ffffffffffffffffffffffffffffffffffffffff1673ffffffffffffffffffffffffffffffffffffffff168152602001908152602001600020549050919050565b610993611014565b73ffffffffffffffffffffffffffffffffffffffff166109b1610aa0565b73ffffffffffffffffffffffffffffffffffffffff1614610a07576040517f08c379a00000000000000000000000000000000000000000000000000000000081526004016109fe90612a5f565b60405180910390fd5b610a1160006115b9565b565b606060006040518060400160405280601d81526020017f646174613a6170706c69636174696f6e2f6a736f6e3b6261736536342c000000815250905080610a7884604051602001610a6491906127ad565b60405160208183030381529060405261141a565b604051602001610a89929190612789565b604051602081830303815290604052915050919050565b6000600760009054906101000a900473ffffffffffffffffffffffffffffffffffffffff16905090565b606060018054610ad990612d8f565b80601f0160208091040260200160405190810160405280929190818152602001828054610b0590612d8f565b8015610b525780601f10610b2757610100808354040283529160200191610b52565b820191906000526020600020905b815481529060010190602001808311610b3557829003601f168201915b5050505050905090565b610b6e610b67611014565b838361167f565b5050565b610b7e336008546117ec565b6000610b8982610768565b90506000610b9682610a13565b9050610ba46008548261180a565b6008547ff5acc616aa8ecd00e5d76674d7812f9c3c3571d662c9fba4499deefa6d0be12d82604051610bd6919061287d565b60405180910390a26001600854610bed9190612bc4565b600881905550505050565b610c09610c03611014565b836110d5565b610c48576040517f08c379a0000000000000000000000000000000000000000000000000000000008152600401610c3f90612abf565b60405180910390fd5b610c548484848461187e565b50505050565b6060610c6582610fa8565b610ca4576040517f08c379a0000000000000000000000000000000000000000000000000000000008152600401610c9b90612a1f565b60405180910390fd5b6000600660008481526020019081526020016000208054610cc490612d8f565b80601f0160208091040260200160405190810160405280929190818152602001828054610cf090612d8f565b8015610d3d5780601f10610d1257610100808354040283529160200191610d3d565b820191906000526020600020905b815481529060010190602001808311610d2057829003601f168201915b505050505090506000610d4e6118da565b9050600081511415610d64578192505050610da7565b600082511115610d99578082604051602001610d81929190612789565b60405160208183030381529060405292505050610da7565b610da2846118f1565b925050505b919050565b60085481565b6000600560008473ffffffffffffffffffffffffffffffffffffffff1673ffffffffffffffffffffffffffffffffffffffff16815260200190815260200160002060008373ffffffffffffffffffffffffffffffffffffffff1673ffffffffffffffffffffffffffffffffffffffff16815260200190815260200160002060009054906101000a900460ff16905092915050565b610e4e611014565b73ffffffffffffffffffffffffffffffffffffffff16610e6c610aa0565b73ffffffffffffffffffffffffffffffffffffffff1614610ec2576040517f08c379a0000000000000000000000000000000000000000000000000000000008152600401610eb990612a5f565b60405180910390fd5b600073ffffffffffffffffffffffffffffffffffffffff168173ffffffffffffffffffffffffffffffffffffffff161415610f32576040517f08c379a0000000000000000000000000000000000000000000000000000000008152600401610f29906128bf565b60405180910390fd5b610f3b816115b9565b50565b60007f01ffc9a7000000000000000000000000000000000000000000000000000000007bffffffffffffffffffffffffffffffffffffffffffffffffffffffff1916827bffffffffffffffffffffffffffffffffffffffffffffffffffffffff1916149050919050565b60008073ffffffffffffffffffffffffffffffffffffffff166002600084815260200190815260200160002060009054906101000a900473ffffffffffffffffffffffffffffffffffffffff1673ffffffffffffffffffffffffffffffffffffffff1614159050919050565b600033905090565b816004600083815260200190815260200160002060006101000a81548173ffffffffffffffffffffffffffffffffffffffff021916908373ffffffffffffffffffffffffffffffffffffffff160217905550808273ffffffffffffffffffffffffffffffffffffffff1661108f83610821565b73ffffffffffffffffffffffffffffffffffffffff167f8c5be1e5ebec7d5bd14f71427d1e84f3dd0314c0f7b2291e5b200ac8c7c3b92560405160405180910390a45050565b60006110e082610fa8565b61111f576040517f08c379a00000000000000000000000000000000000000000000000000000000081526004016111169061295f565b60405180910390fd5b600061112a83610821565b90508073ffffffffffffffffffffffffffffffffffffffff168473ffffffffffffffffffffffffffffffffffffffff16148061116c575061116b8185610db2565b5b806111aa57508373ffffffffffffffffffffffffffffffffffffffff166111928461056b565b73ffffffffffffffffffffffffffffffffffffffff16145b91505092915050565b8273ffffffffffffffffffffffffffffffffffffffff166111d382610821565b73ffffffffffffffffffffffffffffffffffffffff1614611229576040517f08c379a0000000000000000000000000000000000000000000000000000000008152600401611220906128df565b60405180910390fd5b600073ffffffffffffffffffffffffffffffffffffffff168273ffffffffffffffffffffffffffffffffffffffff161415611299576040517f08c379a00000000000000000000000000000000000000000000000000000000081526004016112909061291f565b60405180910390fd5b6112a4838383611998565b6112af60008261101c565b6001600360008573ffffffffffffffffffffffffffffffffffffffff1673ffffffffffffffffffffffffffffffffffffffff16815260200190815260200160002060008282546112ff9190612ca5565b925050819055506001600360008473ffffffffffffffffffffffffffffffffffffffff1673ffffffffffffffffffffffffffffffffffffffff16815260200190815260200160002060008282546113569190612bc4565b92505081905550816002600083815260200190815260200160002060006101000a81548173ffffffffffffffffffffffffffffffffffffffff021916908373ffffffffffffffffffffffffffffffffffffffff160217905550808273ffffffffffffffffffffffffffffffffffffffff168473ffffffffffffffffffffffffffffffffffffffff167fddf252ad1be2c89b69c2b068fc378daa952ba7f163c4a11628f55a4df523b3ef60405160405180910390a461141583838361199d565b505050565b606060008251141561143d576040518060200160405280600081525090506115b4565b600060405180606001604052806040815260200161357f604091399050600060036002855161146c9190612bc4565b6114769190612c1a565b60046114829190612c4b565b905060006020826114939190612bc4565b67ffffffffffffffff8111156114d2577f4e487b7100000000000000000000000000000000000000000000000000000000600052604160045260246000fd5b6040519080825280601f01601f1916602001820160405280156115045781602001600182028036833780820191505090505b509050818152600183018586518101602084015b81831015611573576003830192508251603f8160121c168501518253600182019150603f81600c1c168501518253600182019150603f8160061c168501518253600182019150603f8116850151825360018201915050611518565b60038951066001811461158d576002811461159d576115a8565b613d3d60f01b60028303526115a8565b603d60f81b60018303525b50505050508093505050505b919050565b6000600760009054906101000a900473ffffffffffffffffffffffffffffffffffffffff16905081600760006101000a81548173ffffffffffffffffffffffffffffffffffffffff021916908373ffffffffffffffffffffffffffffffffffffffff1602179055508173ffffffffffffffffffffffffffffffffffffffff168173ffffffffffffffffffffffffffffffffffffffff167f8be0079c531659141344cd1fd0a4f28419497f9722a3daafe3b4186f6b6457e060405160405180910390a35050565b8173ffffffffffffffffffffffffffffffffffffffff168373ffffffffffffffffffffffffffffffffffffffff1614156116ee576040517f08c379a00000000000000000000000000000000000000000000000000000000081526004016116e59061293f565b60405180910390fd5b80600560008573ffffffffffffffffffffffffffffffffffffffff1673ffffffffffffffffffffffffffffffffffffffff16815260200190815260200160002060008473ffffffffffffffffffffffffffffffffffffffff1673ffffffffffffffffffffffffffffffffffffffff16815260200190815260200160002060006101000a81548160ff0219169083151502179055508173ffffffffffffffffffffffffffffffffffffffff168373ffffffffffffffffffffffffffffffffffffffff167f17307eab39ab6107e8899845ad3d59bd9653f200f220920489ca2b5937696c31836040516117df9190612862565b60405180910390a3505050565b6118068282604051806020016040528060008152506119a2565b5050565b61181382610fa8565b611852576040517f08c379a0000000000000000000000000000000000000000000000000000000008152600401611849906129df565b60405180910390fd5b80600660008481526020019081526020016000209080519060200190611879929190611f3e565b505050565b6118898484846111b3565b611895848484846119fd565b6118d4576040517f08c379a00000000000000000000000000000000000000000000000000000000081526004016118cb9061289f565b60405180910390fd5b50505050565b606060405180602001604052806000815250905090565b60606118fc82610fa8565b61193b576040517f08c379a000000000000000000000000000000000000000000000000000000000815260040161193290612a7f565b60405180910390fd5b60006119456118da565b905060008151116119655760405180602001604052806000815250611990565b8061196f84611b94565b604051602001611980929190612789565b6040516020818303038152906040525b915050919050565b505050565b505050565b6119ac8383611d41565b6119b960008484846119fd565b6119f8576040517f08c379a00000000000000000000000000000000000000000000000000000000081526004016119ef9061289f565b60405180910390fd5b505050565b6000611a1e8473ffffffffffffffffffffffffffffffffffffffff16611f1b565b15611b87578373ffffffffffffffffffffffffffffffffffffffff1663150b7a02611a47611014565b8786866040518563ffffffff1660e01b8152600401611a699493929190612816565b602060405180830381600087803b158015611a8357600080fd5b505af1925050508015611ab457506040513d601f19601f82011682018060405250810190611ab191906122ea565b60015b611b37573d8060008114611ae4576040519150601f19603f3d011682016040523d82523d6000602084013e611ae9565b606091505b50600081511415611b2f576040517f08c379a0000000000000000000000000000000000000000000000000000000008152600401611b269061289f565b60405180910390fd5b805181602001fd5b63150b7a0260e01b7bffffffffffffffffffffffffffffffffffffffffffffffffffffffff1916817bffffffffffffffffffffffffffffffffffffffffffffffffffffffff191614915050611b8c565b600190505b949350505050565b60606000821415611bdc576040518060400160405280600181526020017f30000000000000000000000000000000000000000000000000000000000000008152509050611d3c565b600082905060005b60008214611c0e578080611bf790612df2565b915050600a82611c079190612c1a565b9150611be4565b60008167ffffffffffffffff811115611c50577f4e487b7100000000000000000000000000000000000000000000000000000000600052604160045260246000fd5b6040519080825280601f01601f191660200182016040528015611c825781602001600182028036833780820191505090505b5090505b60008514611d3557600182611c9b9190612ca5565b9150600a85611caa9190612e3b565b6030611cb69190612bc4565b60f81b818381518110611cf2577f4e487b7100000000000000000000000000000000000000000000000000000000600052603260045260246000fd5b60200101907effffffffffffffffffffffffffffffffffffffffffffffffffffffffffffff1916908160001a905350600a85611d2e9190612c1a565b9450611c86565b8093505050505b919050565b600073ffffffffffffffffffffffffffffffffffffffff168273ffffffffffffffffffffffffffffffffffffffff161415611db1576040517f08c379a0000000000000000000000000000000000000000000000000000000008152600401611da8906129ff565b60405180910390fd5b611dba81610fa8565b15611dfa576040517f08c379a0000000000000000000000000000000000000000000000000000000008152600401611df1906128ff565b60405180910390fd5b611e0660008383611998565b6001600360008473ffffffffffffffffffffffffffffffffffffffff1673ffffffffffffffffffffffffffffffffffffffff1681526020019081526020016000206000828254611e569190612bc4565b92505081905550816002600083815260200190815260200160002060006101000a81548173ffffffffffffffffffffffffffffffffffffffff021916908373ffffffffffffffffffffffffffffffffffffffff160217905550808273ffffffffffffffffffffffffffffffffffffffff16600073ffffffffffffffffffffffffffffffffffffffff167fddf252ad1be2c89b69c2b068fc378daa952ba7f163c4a11628f55a4df523b3ef60405160405180910390a4611f176000838361199d565b5050565b6000808273ffffffffffffffffffffffffffffffffffffffff163b119050919050565b828054611f4a90612d8f565b90600052602060002090601f016020900481019282611f6c5760008555611fb3565b82601f10611f8557805160ff1916838001178555611fb3565b82800160010185558215611fb3579182015b82811115611fb2578251825591602001919060010190611f97565b5b509050611fc09190611fc4565b5090565b5b80821115611fdd576000816000905550600101611fc5565b5090565b6000611ff4611fef84612b1f565b612afa565b90508281526020810184848401111561200c57600080fd5b612017848285612d4d565b509392505050565b600061203261202d84612b50565b612afa565b90508281526020810184848401111561204a57600080fd5b612055848285612d4d565b509392505050565b60008135905061206c81613522565b92915050565b60008135905061208181613539565b92915050565b60008135905061209681613550565b92915050565b6000815190506120ab81613550565b92915050565b600082601f8301126120c257600080fd5b81356120d2848260208601611fe1565b91505092915050565b600082601f8301126120ec57600080fd5b81356120fc84826020860161201f565b91505092915050565b60008135905061211481613567565b92915050565b60006020828403121561212c57600080fd5b600061213a8482850161205d565b91505092915050565b6000806040838503121561215657600080fd5b60006121648582860161205d565b92505060206121758582860161205d565b9150509250929050565b60008060006060848603121561219457600080fd5b60006121a28682870161205d565b93505060206121b38682870161205d565b92505060406121c486828701612105565b9150509250925092565b600080600080608085870312156121e457600080fd5b60006121f28782880161205d565b94505060206122038782880161205d565b935050604061221487828801612105565b925050606085013567ffffffffffffffff81111561223157600080fd5b61223d878288016120b1565b91505092959194509250565b6000806040838503121561225c57600080fd5b600061226a8582860161205d565b925050602061227b85828601612072565b9150509250929050565b6000806040838503121561229857600080fd5b60006122a68582860161205d565b92505060206122b785828601612105565b9150509250929050565b6000602082840312156122d357600080fd5b60006122e184828501612087565b91505092915050565b6000602082840312156122fc57600080fd5b600061230a8482850161209c565b91505092915050565b60006020828403121561232557600080fd5b600082013567ffffffffffffffff81111561233f57600080fd5b61234b848285016120db565b91505092915050565b60006020828403121561236657600080fd5b600061237484828501612105565b91505092915050565b61238681612cd9565b82525050565b61239581612ceb565b82525050565b60006123a682612b81565b6123b08185612b97565b93506123c0818560208601612d5c565b6123c981612f28565b840191505092915050565b60006123df82612b8c565b6123e98185612ba8565b93506123f9818560208601612d5c565b61240281612f28565b840191505092915050565b600061241882612b8c565b6124228185612bb9565b9350612432818560208601612d5c565b80840191505092915050565b600061244b603283612ba8565b915061245682612f39565b604082019050919050565b600061246e602683612ba8565b915061247982612f88565b604082019050919050565b6000612491602583612ba8565b915061249c82612fd7565b604082019050919050565b60006124b4601c83612ba8565b91506124bf82613026565b602082019050919050565b60006124d7601483612bb9565b91506124e28261304f565b601482019050919050565b60006124fa602483612ba8565b915061250582613078565b604082019050919050565b600061251d601983612ba8565b9150612528826130c7565b602082019050919050565b6000612540602c83612ba8565b915061254b826130f0565b604082019050919050565b6000612563603883612ba8565b915061256e8261313f565b604082019050919050565b6000612586602a83612ba8565b91506125918261318e565b604082019050919050565b60006125a9602983612ba8565b91506125b4826131dd565b604082019050919050565b60006125cc602e83612ba8565b91506125d78261322c565b604082019050919050565b60006125ef602a83612bb9565b91506125fa8261327b565b602a82019050919050565b6000612612600283612bb9565b915061261d826132ca565b600282019050919050565b6000612635602083612ba8565b9150612640826132f3565b602082019050919050565b6000612658603183612ba8565b91506126638261331c565b604082019050919050565b600061267b602c83612ba8565b91506126868261336b565b604082019050919050565b600061269e602083612ba8565b91506126a9826133ba565b602082019050919050565b60006126c1602f83612ba8565b91506126cc826133e3565b604082019050919050565b60006126e4601283612bb9565b91506126ef82613432565b601282019050919050565b6000612707602183612ba8565b91506127128261345b565b604082019050919050565b600061272a603183612ba8565b9150612735826134aa565b604082019050919050565b600061274d600a83612bb9565b9150612758826134f9565b600a82019050919050565b61276c81612d43565b82525050565b600061277e828461240d565b915081905092915050565b6000612795828561240d565b91506127a1828461240d565b91508190509392505050565b60006127b8826124ca565b91506127c3826125e2565b91506127ce826126d7565b91506127d982612740565b91506127e5828461240d565b91506127f082612605565b915081905092915050565b6000602082019050612810600083018461237d565b92915050565b600060808201905061282b600083018761237d565b612838602083018661237d565b6128456040830185612763565b8181036060830152612857818461239b565b905095945050505050565b6000602082019050612877600083018461238c565b92915050565b6000602082019050818103600083015261289781846123d4565b905092915050565b600060208201905081810360008301526128b88161243e565b9050919050565b600060208201905081810360008301526128d881612461565b9050919050565b600060208201905081810360008301526128f881612484565b9050919050565b60006020820190508181036000830152612918816124a7565b9050919050565b60006020820190508181036000830152612938816124ed565b9050919050565b6000602082019050818103600083015261295881612510565b9050919050565b6000602082019050818103600083015261297881612533565b9050919050565b6000602082019050818103600083015261299881612556565b9050919050565b600060208201905081810360008301526129b881612579565b9050919050565b600060208201905081810360008301526129d88161259c565b9050919050565b600060208201905081810360008301526129f8816125bf565b9050919050565b60006020820190508181036000830152612a1881612628565b9050919050565b60006020820190508181036000830152612a388161264b565b9050919050565b60006020820190508181036000830152612a588161266e565b9050919050565b60006020820190508181036000830152612a7881612691565b9050919050565b60006020820190508181036000830152612a98816126b4565b9050919050565b60006020820190508181036000830152612ab8816126fa565b9050919050565b60006020820190508181036000830152612ad88161271d565b9050919050565b6000602082019050612af46000830184612763565b92915050565b6000612b04612b15565b9050612b108282612dc1565b919050565b6000604051905090565b600067ffffffffffffffff821115612b3a57612b39612ef9565b5b612b4382612f28565b9050602081019050919050565b600067ffffffffffffffff821115612b6b57612b6a612ef9565b5b612b7482612f28565b9050602081019050919050565b600081519050919050565b600081519050919050565b600082825260208201905092915050565b600082825260208201905092915050565b600081905092915050565b6000612bcf82612d43565b9150612bda83612d43565b9250827fffffffffffffffffffffffffffffffffffffffffffffffffffffffffffffffff03821115612c0f57612c0e612e6c565b5b828201905092915050565b6000612c2582612d43565b9150612c3083612d43565b925082612c4057612c3f612e9b565b5b828204905092915050565b6000612c5682612d43565b9150612c6183612d43565b9250817fffffffffffffffffffffffffffffffffffffffffffffffffffffffffffffffff0483118215151615612c9a57612c99612e6c565b5b828202905092915050565b6000612cb082612d43565b9150612cbb83612d43565b925082821015612cce57612ccd612e6c565b5b828203905092915050565b6000612ce482612d23565b9050919050565b60008115159050919050565b60007fffffffff0000000000000000000000000000000000000000000000000000000082169050919050565b600073ffffffffffffffffffffffffffffffffffffffff82169050919050565b6000819050919050565b82818337600083830152505050565b60005b83811015612d7a578082015181840152602081019050612d5f565b83811115612d89576000848401525b50505050565b60006002820490506001821680612da757607f821691505b60208210811415612dbb57612dba612eca565b5b50919050565b612dca82612f28565b810181811067ffffffffffffffff82111715612de957612de8612ef9565b5b80604052505050565b6000612dfd82612d43565b91507fffffffffffffffffffffffffffffffffffffffffffffffffffffffffffffffff821415612e3057612e2f612e6c565b5b600182019050919050565b6000612e4682612d43565b9150612e5183612d43565b925082612e6157612e60612e9b565b5b828206905092915050565b7f4e487b7100000000000000000000000000000000000000000000000000000000600052601160045260246000fd5b7f4e487b7100000000000000000000000000000000000000000000000000000000600052601260045260246000fd5b7f4e487b7100000000000000000000000000000000000000000000000000000000600052602260045260246000fd5b7f4e487b7100000000000000000000000000000000000000000000000000000000600052604160045260246000fd5b6000601f19601f8301169050919050565b7f4552433732313a207472616e7366657220746f206e6f6e20455243373231526560008201527f63656976657220696d706c656d656e7465720000000000000000000000000000602082015250565b7f4f776e61626c653a206e6577206f776e657220697320746865207a65726f206160008201527f6464726573730000000000000000000000000000000000000000000000000000602082015250565b7f4552433732313a207472616e736665722066726f6d20696e636f72726563742060008201527f6f776e6572000000000000000000000000000000000000000000000000000000602082015250565b7f4552433732313a20746f6b656e20616c7265616479206d696e74656400000000600082015250565b7f7b226e616d65223a2022535647204e4654222c20000000000000000000000000600082015250565b7f4552433732313a207472616e7366657220746f20746865207a65726f2061646460008201527f7265737300000000000000000000000000000000000000000000000000000000602082015250565b7f4552433732313a20617070726f766520746f2063616c6c657200000000000000600082015250565b7f4552433732313a206f70657261746f7220717565727920666f72206e6f6e657860008201527f697374656e7420746f6b656e0000000000000000000000000000000000000000602082015250565b7f4552433732313a20617070726f76652063616c6c6572206973206e6f74206f7760008201527f6e6572206e6f7220617070726f76656420666f7220616c6c0000000000000000602082015250565b7f4552433732313a2062616c616e636520717565727920666f7220746865207a6560008201527f726f206164647265737300000000000000000000000000000000000000000000602082015250565b7f4552433732313a206f776e657220717565727920666f72206e6f6e657869737460008201527f656e7420746f6b656e0000000000000000000000000000000000000000000000602082015250565b7f45524337323155524953746f726167653a2055524920736574206f66206e6f6e60008201527f6578697374656e7420746f6b656e000000000000000000000000000000000000602082015250565b7f226465736372697074696f6e223a2022416e204e4654206261736564206f6e2060008201527f616e2053564721222c2000000000000000000000000000000000000000000000602082015250565b7f227d000000000000000000000000000000000000000000000000000000000000600082015250565b7f4552433732313a206d696e7420746f20746865207a65726f2061646472657373600082015250565b7f45524337323155524953746f726167653a2055524920717565727920666f722060008201527f6e6f6e6578697374656e7420746f6b656e000000000000000000000000000000602082015250565b7f4552433732313a20617070726f76656420717565727920666f72206e6f6e657860008201527f697374656e7420746f6b656e0000000000000000000000000000000000000000602082015250565b7f4f776e61626c653a2063616c6c6572206973206e6f7420746865206f776e6572600082015250565b7f4552433732314d657461646174613a2055524920717565727920666f72206e6f60008201527f6e6578697374656e7420746f6b656e0000000000000000000000000000000000602082015250565b7f2261747472696275746573223a2022222c200000000000000000000000000000600082015250565b7f4552433732313a20617070726f76616c20746f2063757272656e74206f776e6560008201527f7200000000000000000000000000000000000000000000000000000000000000602082015250565b7f4552433732313a207472616e736665722063616c6c6572206973206e6f74206f60008201527f776e6572206e6f7220617070726f766564000000000000000000000000000000602082015250565b7f22696d616765223a202200000000000000000000000000000000000000000000600082015250565b61352b81612cd9565b811461353657600080fd5b50565b61354281612ceb565b811461354d57600080fd5b50565b61355981612cf7565b811461356457600080fd5b50565b61357081612d43565b811461357b57600080fd5b5056fe4142434445464748494a4b4c4d4e4f505152535455565758595a6162636465666768696a6b6c6d6e6f707172737475767778797a303132333435363738392b2fa26469706673582212207a411e8dc8acc5b0b018788846b038100f72f51a3e6faf072d212712b50632f064736f6c63430008040033",
  "devdoc": {
    "kind": "dev",
    "methods": {
      "approve(address,uint256)": {
        "details": "See {IERC721-approve}."
      },
      "balanceOf(address)": {
        "details": "See {IERC721-balanceOf}."
      },
      "getApproved(uint256)": {
        "details": "See {IERC721-getApproved}."
      },
      "isApprovedForAll(address,address)": {
        "details": "See {IERC721-isApprovedForAll}."
      },
      "name()": {
        "details": "See {IERC721Metadata-name}."
      },
      "owner()": {
        "details": "Returns the address of the current owner."
      },
      "ownerOf(uint256)": {
        "details": "See {IERC721-ownerOf}."
      },
      "renounceOwnership()": {
        "details": "Leaves the contract without owner. It will not be possible to call `onlyOwner` functions anymore. Can only be called by the current owner. NOTE: Renouncing ownership will leave the contract without an owner, thereby removing any functionality that is only available to the owner."
      },
      "safeTransferFrom(address,address,uint256)": {
        "details": "See {IERC721-safeTransferFrom}."
      },
      "safeTransferFrom(address,address,uint256,bytes)": {
        "details": "See {IERC721-safeTransferFrom}."
      },
      "setApprovalForAll(address,bool)": {
        "details": "See {IERC721-setApprovalForAll}."
      },
      "supportsInterface(bytes4)": {
        "details": "See {IERC165-supportsInterface}."
      },
      "symbol()": {
        "details": "See {IERC721Metadata-symbol}."
      },
      "tokenURI(uint256)": {
        "details": "See {IERC721Metadata-tokenURI}."
      },
      "transferFrom(address,address,uint256)": {
        "details": "See {IERC721-transferFrom}."
      },
      "transferOwnership(address)": {
        "details": "Transfers ownership of the contract to a new account (`newOwner`). Can only be called by the current owner."
      }
    },
    "version": 1
  },
  "userdoc": {
    "kind": "user",
    "methods": {},
    "version": 1
  },
  "storageLayout": {
    "storage": [
      {
        "astId": 130,
        "contract": "contracts/SVGNFT.sol:SVGNFT",
        "label": "_name",
        "offset": 0,
        "slot": "0",
        "type": "t_string_storage"
      },
      {
        "astId": 132,
        "contract": "contracts/SVGNFT.sol:SVGNFT",
        "label": "_symbol",
        "offset": 0,
        "slot": "1",
        "type": "t_string_storage"
      },
      {
        "astId": 136,
        "contract": "contracts/SVGNFT.sol:SVGNFT",
        "label": "_owners",
        "offset": 0,
        "slot": "2",
        "type": "t_mapping(t_uint256,t_address)"
      },
      {
        "astId": 140,
        "contract": "contracts/SVGNFT.sol:SVGNFT",
        "label": "_balances",
        "offset": 0,
        "slot": "3",
        "type": "t_mapping(t_address,t_uint256)"
      },
      {
        "astId": 144,
        "contract": "contracts/SVGNFT.sol:SVGNFT",
        "label": "_tokenApprovals",
        "offset": 0,
        "slot": "4",
        "type": "t_mapping(t_uint256,t_address)"
      },
      {
        "astId": 150,
        "contract": "contracts/SVGNFT.sol:SVGNFT",
        "label": "_operatorApprovals",
        "offset": 0,
        "slot": "5",
        "type": "t_mapping(t_address,t_mapping(t_address,t_bool))"
      },
      {
        "astId": 1117,
        "contract": "contracts/SVGNFT.sol:SVGNFT",
        "label": "_tokenURIs",
        "offset": 0,
        "slot": "6",
        "type": "t_mapping(t_uint256,t_string_storage)"
      },
      {
        "astId": 7,
        "contract": "contracts/SVGNFT.sol:SVGNFT",
        "label": "_owner",
        "offset": 0,
        "slot": "7",
        "type": "t_address"
      },
      {
        "astId": 1941,
        "contract": "contracts/SVGNFT.sol:SVGNFT",
        "label": "tokenCounter",
        "offset": 0,
        "slot": "8",
        "type": "t_uint256"
      }
    ],
    "types": {
      "t_address": {
        "encoding": "inplace",
        "label": "address",
        "numberOfBytes": "20"
      },
      "t_bool": {
        "encoding": "inplace",
        "label": "bool",
        "numberOfBytes": "1"
      },
      "t_mapping(t_address,t_bool)": {
        "encoding": "mapping",
        "key": "t_address",
        "label": "mapping(address => bool)",
        "numberOfBytes": "32",
        "value": "t_bool"
      },
      "t_mapping(t_address,t_mapping(t_address,t_bool))": {
        "encoding": "mapping",
        "key": "t_address",
        "label": "mapping(address => mapping(address => bool))",
        "numberOfBytes": "32",
        "value": "t_mapping(t_address,t_bool)"
      },
      "t_mapping(t_address,t_uint256)": {
        "encoding": "mapping",
        "key": "t_address",
        "label": "mapping(address => uint256)",
        "numberOfBytes": "32",
        "value": "t_uint256"
      },
      "t_mapping(t_uint256,t_address)": {
        "encoding": "mapping",
        "key": "t_uint256",
        "label": "mapping(uint256 => address)",
        "numberOfBytes": "32",
        "value": "t_address"
      },
      "t_mapping(t_uint256,t_string_storage)": {
        "encoding": "mapping",
        "key": "t_uint256",
        "label": "mapping(uint256 => string)",
        "numberOfBytes": "32",
        "value": "t_string_storage"
      },
      "t_string_storage": {
        "encoding": "bytes",
        "label": "string",
        "numberOfBytes": "32"
      },
      "t_uint256": {
        "encoding": "inplace",
        "label": "uint256",
        "numberOfBytes": "32"
      }
    }
  }
}